{
	"contracts/arrays/dynamic.sol": {
		"ENS": {
			"abi": [
				{
					"inputs": [],
					"stateMutability": "nonpayable",
					"type": "constructor"
				},
				{
					"inputs": [
						{
							"internalType": "uint256",
							"name": "_number",
							"type": "uint256"
						}
					],
					"name": "addNumber",
					"outputs": [],
					"stateMutability": "nonpayable",
					"type": "function"
				},
				{
					"inputs": [],
					"name": "getName",
					"outputs": [
						{
							"internalType": "string",
							"name": "",
							"type": "string"
						}
					],
					"stateMutability": "view",
					"type": "function"
				},
				{
					"inputs": [
						{
							"internalType": "uint256",
							"name": "index",
							"type": "uint256"
						}
					],
					"name": "getNumber",
					"outputs": [
						{
							"internalType": "uint256",
							"name": "",
							"type": "uint256"
						}
					],
					"stateMutability": "view",
					"type": "function"
				},
				{
					"inputs": [],
					"name": "getNumbersLength",
					"outputs": [
						{
							"internalType": "uint256",
							"name": "",
							"type": "uint256"
						}
					],
					"stateMutability": "view",
					"type": "function"
				},
				{
					"inputs": [
						{
							"internalType": "uint256",
							"name": "",
							"type": "uint256"
						}
					],
					"name": "numbers",
					"outputs": [
						{
							"internalType": "uint256",
							"name": "",
							"type": "uint256"
						}
					],
					"stateMutability": "view",
					"type": "function"
				},
				{
					"inputs": [
						{
							"internalType": "string",
							"name": "userName",
							"type": "string"
						}
					],
					"name": "signUp",
					"outputs": [],
					"stateMutability": "nonpayable",
					"type": "function"
				}
			],
			"devdoc": {
				"kind": "dev",
				"methods": {},
				"version": 1
			},
			"evm": {
				"assembly": "    /* \"contracts/arrays/dynamic.sol\":58:665  contract ENS{... */\n  mstore(0x40, 0x80)\n    /* \"contracts/arrays/dynamic.sol\":440:461  constructor(){... */\n  callvalue\n  dup1\n  iszero\n  tag_1\n  jumpi\n  0x00\n  dup1\n  revert\ntag_1:\n  pop\n    /* \"contracts/arrays/dynamic.sol\":58:665  contract ENS{... */\n  dataSize(sub_0)\n  dup1\n  dataOffset(sub_0)\n  0x00\n  codecopy\n  0x00\n  return\nstop\n\nsub_0: assembly {\n        /* \"contracts/arrays/dynamic.sol\":58:665  contract ENS{... */\n      mstore(0x40, 0x80)\n      callvalue\n      dup1\n      iszero\n      tag_1\n      jumpi\n      0x00\n      dup1\n      revert\n    tag_1:\n      pop\n      jumpi(tag_2, lt(calldatasize, 0x04))\n      shr(0xe0, calldataload(0x00))\n      dup1\n      0x17d7de7c\n      eq\n      tag_3\n      jumpi\n      dup1\n      0xadcfb4fc\n      eq\n      tag_4\n      jumpi\n      dup1\n      0xd39fa233\n      eq\n      tag_5\n      jumpi\n      dup1\n      0xf3d4e562\n      eq\n      tag_6\n      jumpi\n      dup1\n      0xfc563658\n      eq\n      tag_7\n      jumpi\n      dup1\n      0xfce68023\n      eq\n      tag_8\n      jumpi\n    tag_2:\n      0x00\n      dup1\n      revert\n        /* \"contracts/arrays/dynamic.sol\":567:663  function getName() public view returns (string memory){... */\n    tag_3:\n      tag_9\n      tag_10\n      jump\t// in\n    tag_9:\n      mload(0x40)\n      tag_11\n      swap2\n      swap1\n      tag_12\n      jump\t// in\n    tag_11:\n      mload(0x40)\n      dup1\n      swap2\n      sub\n      swap1\n      return\n        /* \"contracts/arrays/dynamic.sol\":469:560  function signUp(string memory userName) public{... */\n    tag_4:\n      tag_13\n      0x04\n      dup1\n      calldatasize\n      sub\n      dup2\n      add\n      swap1\n      tag_14\n      swap2\n      swap1\n      tag_15\n      jump\t// in\n    tag_14:\n      tag_16\n      jump\t// in\n    tag_13:\n      stop\n        /* \"contracts/arrays/dynamic.sol\":77:98  uint[] public numbers */\n    tag_5:\n      tag_17\n      0x04\n      dup1\n      calldatasize\n      sub\n      dup2\n      add\n      swap1\n      tag_18\n      swap2\n      swap1\n      tag_19\n      jump\t// in\n    tag_18:\n      tag_20\n      jump\t// in\n    tag_17:\n      mload(0x40)\n      tag_21\n      swap2\n      swap1\n      tag_22\n      jump\t// in\n    tag_21:\n      mload(0x40)\n      dup1\n      swap2\n      sub\n      swap1\n      return\n        /* \"contracts/arrays/dynamic.sol\":190:283  function getNumbersLength() public view returns (uint){... */\n    tag_6:\n      tag_23\n      tag_24\n      jump\t// in\n    tag_23:\n      mload(0x40)\n      tag_25\n      swap2\n      swap1\n      tag_22\n      jump\t// in\n    tag_25:\n      mload(0x40)\n      dup1\n      swap2\n      sub\n      swap1\n      return\n        /* \"contracts/arrays/dynamic.sol\":289:385  function getNumber(uint index) public view returns (uint){... */\n    tag_7:\n      tag_26\n      0x04\n      dup1\n      calldatasize\n      sub\n      dup2\n      add\n      swap1\n      tag_27\n      swap2\n      swap1\n      tag_19\n      jump\t// in\n    tag_27:\n      tag_28\n      jump\t// in\n    tag_26:\n      mload(0x40)\n      tag_29\n      swap2\n      swap1\n      tag_22\n      jump\t// in\n    tag_29:\n      mload(0x40)\n      dup1\n      swap2\n      sub\n      swap1\n      return\n        /* \"contracts/arrays/dynamic.sol\":106:184  function addNumber(uint _number) public{... */\n    tag_8:\n      tag_30\n      0x04\n      dup1\n      calldatasize\n      sub\n      dup2\n      add\n      swap1\n      tag_31\n      swap2\n      swap1\n      tag_19\n      jump\t// in\n    tag_31:\n      tag_32\n      jump\t// in\n    tag_30:\n      stop\n        /* \"contracts/arrays/dynamic.sol\":567:663  function getName() public view returns (string memory){... */\n    tag_10:\n        /* \"contracts/arrays/dynamic.sol\":607:620  string memory */\n      0x60\n        /* \"contracts/arrays/dynamic.sol\":639:644  users */\n      0x01\n        /* \"contracts/arrays/dynamic.sol\":639:656  users[msg.sender] */\n      0x00\n        /* \"contracts/arrays/dynamic.sol\":645:655  msg.sender */\n      caller\n        /* \"contracts/arrays/dynamic.sol\":639:656  users[msg.sender] */\n      0xffffffffffffffffffffffffffffffffffffffff\n      and\n      0xffffffffffffffffffffffffffffffffffffffff\n      and\n      dup2\n      mstore\n      0x20\n      add\n      swap1\n      dup2\n      mstore\n      0x20\n      add\n      0x00\n      keccak256\n        /* \"contracts/arrays/dynamic.sol\":632:656  return users[msg.sender] */\n      dup1\n      sload\n      tag_34\n      swap1\n      tag_35\n      jump\t// in\n    tag_34:\n      dup1\n      0x1f\n      add\n      0x20\n      dup1\n      swap2\n      div\n      mul\n      0x20\n      add\n      mload(0x40)\n      swap1\n      dup2\n      add\n      0x40\n      mstore\n      dup1\n      swap3\n      swap2\n      swap1\n      dup2\n      dup2\n      mstore\n      0x20\n      add\n      dup3\n      dup1\n      sload\n      tag_36\n      swap1\n      tag_35\n      jump\t// in\n    tag_36:\n      dup1\n      iszero\n      tag_37\n      jumpi\n      dup1\n      0x1f\n      lt\n      tag_38\n      jumpi\n      0x0100\n      dup1\n      dup4\n      sload\n      div\n      mul\n      dup4\n      mstore\n      swap2\n      0x20\n      add\n      swap2\n      jump(tag_37)\n    tag_38:\n      dup3\n      add\n      swap2\n      swap1\n      0x00\n      mstore\n      keccak256(0x00, 0x20)\n      swap1\n    tag_39:\n      dup2\n      sload\n      dup2\n      mstore\n      swap1\n      0x01\n      add\n      swap1\n      0x20\n      add\n      dup1\n      dup4\n      gt\n      tag_39\n      jumpi\n      dup3\n      swap1\n      sub\n      0x1f\n      and\n      dup3\n      add\n      swap2\n    tag_37:\n      pop\n      pop\n      pop\n      pop\n      pop\n      swap1\n      pop\n        /* \"contracts/arrays/dynamic.sol\":567:663  function getName() public view returns (string memory){... */\n      swap1\n      jump\t// out\n        /* \"contracts/arrays/dynamic.sol\":469:560  function signUp(string memory userName) public{... */\n    tag_16:\n        /* \"contracts/arrays/dynamic.sol\":545:553  userName */\n      dup1\n        /* \"contracts/arrays/dynamic.sol\":525:530  users */\n      0x01\n        /* \"contracts/arrays/dynamic.sol\":525:542  users[msg.sender] */\n      0x00\n        /* \"contracts/arrays/dynamic.sol\":531:541  msg.sender */\n      caller\n        /* \"contracts/arrays/dynamic.sol\":525:542  users[msg.sender] */\n      0xffffffffffffffffffffffffffffffffffffffff\n      and\n      0xffffffffffffffffffffffffffffffffffffffff\n      and\n      dup2\n      mstore\n      0x20\n      add\n      swap1\n      dup2\n      mstore\n      0x20\n      add\n      0x00\n      keccak256\n        /* \"contracts/arrays/dynamic.sol\":525:553  users[msg.sender] = userName */\n      swap1\n      dup2\n      tag_41\n      swap2\n      swap1\n      tag_42\n      jump\t// in\n    tag_41:\n      pop\n        /* \"contracts/arrays/dynamic.sol\":469:560  function signUp(string memory userName) public{... */\n      pop\n      jump\t// out\n        /* \"contracts/arrays/dynamic.sol\":77:98  uint[] public numbers */\n    tag_20:\n      0x00\n      dup2\n      dup2\n      sload\n      dup2\n      lt\n      tag_43\n      jumpi\n      0x00\n      dup1\n      revert\n    tag_43:\n      swap1\n      0x00\n      mstore\n      keccak256(0x00, 0x20)\n      add\n      0x00\n      swap2\n      pop\n      swap1\n      pop\n      sload\n      dup2\n      jump\t// out\n        /* \"contracts/arrays/dynamic.sol\":190:283  function getNumbersLength() public view returns (uint){... */\n    tag_24:\n        /* \"contracts/arrays/dynamic.sol\":239:243  uint */\n      0x00\n        /* \"contracts/arrays/dynamic.sol\":262:269  numbers */\n      dup1\n        /* \"contracts/arrays/dynamic.sol\":262:276  numbers.length */\n      dup1\n      sload\n      swap1\n      pop\n        /* \"contracts/arrays/dynamic.sol\":255:276  return numbers.length */\n      swap1\n      pop\n        /* \"contracts/arrays/dynamic.sol\":190:283  function getNumbersLength() public view returns (uint){... */\n      swap1\n      jump\t// out\n        /* \"contracts/arrays/dynamic.sol\":289:385  function getNumber(uint index) public view returns (uint){... */\n    tag_28:\n        /* \"contracts/arrays/dynamic.sol\":341:345  uint */\n      0x00\n        /* \"contracts/arrays/dynamic.sol\":364:371  numbers */\n      dup1\n        /* \"contracts/arrays/dynamic.sol\":372:377  index */\n      dup3\n        /* \"contracts/arrays/dynamic.sol\":364:378  numbers[index] */\n      dup2\n      sload\n      dup2\n      lt\n      tag_47\n      jumpi\n      tag_48\n      tag_49\n      jump\t// in\n    tag_48:\n    tag_47:\n      swap1\n      0x00\n      mstore\n      keccak256(0x00, 0x20)\n      add\n      sload\n        /* \"contracts/arrays/dynamic.sol\":357:378  return numbers[index] */\n      swap1\n      pop\n        /* \"contracts/arrays/dynamic.sol\":289:385  function getNumber(uint index) public view returns (uint){... */\n      swap2\n      swap1\n      pop\n      jump\t// out\n        /* \"contracts/arrays/dynamic.sol\":106:184  function addNumber(uint _number) public{... */\n    tag_32:\n        /* \"contracts/arrays/dynamic.sol\":156:163  numbers */\n      0x00\n        /* \"contracts/arrays/dynamic.sol\":169:176  _number */\n      dup2\n        /* \"contracts/arrays/dynamic.sol\":156:177  numbers.push(_number) */\n      swap1\n      dup1\n      0x01\n      dup2\n      sload\n      add\n      dup1\n      dup3\n      sstore\n      dup1\n      swap2\n      pop\n      pop\n      0x01\n      swap1\n      sub\n      swap1\n      0x00\n      mstore\n      keccak256(0x00, 0x20)\n      add\n      0x00\n      swap1\n      swap2\n      swap1\n      swap2\n      swap1\n      swap2\n      pop\n      sstore\n        /* \"contracts/arrays/dynamic.sol\":106:184  function addNumber(uint _number) public{... */\n      pop\n      jump\t// out\n        /* \"#utility.yul\":7:106   */\n    tag_53:\n        /* \"#utility.yul\":59:65   */\n      0x00\n        /* \"#utility.yul\":93:98   */\n      dup2\n        /* \"#utility.yul\":87:99   */\n      mload\n        /* \"#utility.yul\":77:99   */\n      swap1\n      pop\n        /* \"#utility.yul\":7:106   */\n      swap2\n      swap1\n      pop\n      jump\t// out\n        /* \"#utility.yul\":112:281   */\n    tag_54:\n        /* \"#utility.yul\":196:207   */\n      0x00\n        /* \"#utility.yul\":230:236   */\n      dup3\n        /* \"#utility.yul\":225:228   */\n      dup3\n        /* \"#utility.yul\":218:237   */\n      mstore\n        /* \"#utility.yul\":270:274   */\n      0x20\n        /* \"#utility.yul\":265:268   */\n      dup3\n        /* \"#utility.yul\":261:275   */\n      add\n        /* \"#utility.yul\":246:275   */\n      swap1\n      pop\n        /* \"#utility.yul\":112:281   */\n      swap3\n      swap2\n      pop\n      pop\n      jump\t// out\n        /* \"#utility.yul\":287:426   */\n    tag_55:\n        /* \"#utility.yul\":376:382   */\n      dup3\n        /* \"#utility.yul\":371:374   */\n      dup2\n        /* \"#utility.yul\":366:369   */\n      dup4\n        /* \"#utility.yul\":360:383   */\n      mcopy\n        /* \"#utility.yul\":417:418   */\n      0x00\n        /* \"#utility.yul\":408:414   */\n      dup4\n        /* \"#utility.yul\":403:406   */\n      dup4\n        /* \"#utility.yul\":399:415   */\n      add\n        /* \"#utility.yul\":392:419   */\n      mstore\n        /* \"#utility.yul\":287:426   */\n      pop\n      pop\n      pop\n      jump\t// out\n        /* \"#utility.yul\":432:534   */\n    tag_56:\n        /* \"#utility.yul\":473:479   */\n      0x00\n        /* \"#utility.yul\":524:526   */\n      0x1f\n        /* \"#utility.yul\":520:527   */\n      not\n        /* \"#utility.yul\":515:517   */\n      0x1f\n        /* \"#utility.yul\":508:513   */\n      dup4\n        /* \"#utility.yul\":504:518   */\n      add\n        /* \"#utility.yul\":500:528   */\n      and\n        /* \"#utility.yul\":490:528   */\n      swap1\n      pop\n        /* \"#utility.yul\":432:534   */\n      swap2\n      swap1\n      pop\n      jump\t// out\n        /* \"#utility.yul\":540:917   */\n    tag_57:\n        /* \"#utility.yul\":628:631   */\n      0x00\n        /* \"#utility.yul\":656:695   */\n      tag_96\n        /* \"#utility.yul\":689:694   */\n      dup3\n        /* \"#utility.yul\":656:695   */\n      tag_53\n      jump\t// in\n    tag_96:\n        /* \"#utility.yul\":711:782   */\n      tag_97\n        /* \"#utility.yul\":775:781   */\n      dup2\n        /* \"#utility.yul\":770:773   */\n      dup6\n        /* \"#utility.yul\":711:782   */\n      tag_54\n      jump\t// in\n    tag_97:\n        /* \"#utility.yul\":704:782   */\n      swap4\n      pop\n        /* \"#utility.yul\":791:856   */\n      tag_98\n        /* \"#utility.yul\":849:855   */\n      dup2\n        /* \"#utility.yul\":844:847   */\n      dup6\n        /* \"#utility.yul\":837:841   */\n      0x20\n        /* \"#utility.yul\":830:835   */\n      dup7\n        /* \"#utility.yul\":826:842   */\n      add\n        /* \"#utility.yul\":791:856   */\n      tag_55\n      jump\t// in\n    tag_98:\n        /* \"#utility.yul\":881:910   */\n      tag_99\n        /* \"#utility.yul\":903:909   */\n      dup2\n        /* \"#utility.yul\":881:910   */\n      tag_56\n      jump\t// in\n    tag_99:\n        /* \"#utility.yul\":876:879   */\n      dup5\n        /* \"#utility.yul\":872:911   */\n      add\n        /* \"#utility.yul\":865:911   */\n      swap2\n      pop\n        /* \"#utility.yul\":632:917   */\n      pop\n        /* \"#utility.yul\":540:917   */\n      swap3\n      swap2\n      pop\n      pop\n      jump\t// out\n        /* \"#utility.yul\":923:1236   */\n    tag_12:\n        /* \"#utility.yul\":1036:1040   */\n      0x00\n        /* \"#utility.yul\":1074:1076   */\n      0x20\n        /* \"#utility.yul\":1063:1072   */\n      dup3\n        /* \"#utility.yul\":1059:1077   */\n      add\n        /* \"#utility.yul\":1051:1077   */\n      swap1\n      pop\n        /* \"#utility.yul\":1123:1132   */\n      dup2\n        /* \"#utility.yul\":1117:1121   */\n      dup2\n        /* \"#utility.yul\":1113:1133   */\n      sub\n        /* \"#utility.yul\":1109:1110   */\n      0x00\n        /* \"#utility.yul\":1098:1107   */\n      dup4\n        /* \"#utility.yul\":1094:1111   */\n      add\n        /* \"#utility.yul\":1087:1134   */\n      mstore\n        /* \"#utility.yul\":1151:1229   */\n      tag_101\n        /* \"#utility.yul\":1224:1228   */\n      dup2\n        /* \"#utility.yul\":1215:1221   */\n      dup5\n        /* \"#utility.yul\":1151:1229   */\n      tag_57\n      jump\t// in\n    tag_101:\n        /* \"#utility.yul\":1143:1229   */\n      swap1\n      pop\n        /* \"#utility.yul\":923:1236   */\n      swap3\n      swap2\n      pop\n      pop\n      jump\t// out\n        /* \"#utility.yul\":1242:1317   */\n    tag_58:\n        /* \"#utility.yul\":1275:1281   */\n      0x00\n        /* \"#utility.yul\":1308:1310   */\n      0x40\n        /* \"#utility.yul\":1302:1311   */\n      mload\n        /* \"#utility.yul\":1292:1311   */\n      swap1\n      pop\n        /* \"#utility.yul\":1242:1317   */\n      swap1\n      jump\t// out\n        /* \"#utility.yul\":1323:1440   */\n    tag_59:\n        /* \"#utility.yul\":1432:1433   */\n      0x00\n        /* \"#utility.yul\":1429:1430   */\n      dup1\n        /* \"#utility.yul\":1422:1434   */\n      revert\n        /* \"#utility.yul\":1446:1563   */\n    tag_60:\n        /* \"#utility.yul\":1555:1556   */\n      0x00\n        /* \"#utility.yul\":1552:1553   */\n      dup1\n        /* \"#utility.yul\":1545:1557   */\n      revert\n        /* \"#utility.yul\":1569:1686   */\n    tag_61:\n        /* \"#utility.yul\":1678:1679   */\n      0x00\n        /* \"#utility.yul\":1675:1676   */\n      dup1\n        /* \"#utility.yul\":1668:1680   */\n      revert\n        /* \"#utility.yul\":1692:1809   */\n    tag_62:\n        /* \"#utility.yul\":1801:1802   */\n      0x00\n        /* \"#utility.yul\":1798:1799   */\n      dup1\n        /* \"#utility.yul\":1791:1803   */\n      revert\n        /* \"#utility.yul\":1815:1995   */\n    tag_63:\n        /* \"#utility.yul\":1863:1940   */\n      0x4e487b7100000000000000000000000000000000000000000000000000000000\n        /* \"#utility.yul\":1860:1861   */\n      0x00\n        /* \"#utility.yul\":1853:1941   */\n      mstore\n        /* \"#utility.yul\":1960:1964   */\n      0x41\n        /* \"#utility.yul\":1957:1958   */\n      0x04\n        /* \"#utility.yul\":1950:1965   */\n      mstore\n        /* \"#utility.yul\":1984:1988   */\n      0x24\n        /* \"#utility.yul\":1981:1982   */\n      0x00\n        /* \"#utility.yul\":1974:1989   */\n      revert\n        /* \"#utility.yul\":2001:2282   */\n    tag_64:\n        /* \"#utility.yul\":2084:2111   */\n      tag_109\n        /* \"#utility.yul\":2106:2110   */\n      dup3\n        /* \"#utility.yul\":2084:2111   */\n      tag_56\n      jump\t// in\n    tag_109:\n        /* \"#utility.yul\":2076:2082   */\n      dup2\n        /* \"#utility.yul\":2072:2112   */\n      add\n        /* \"#utility.yul\":2214:2220   */\n      dup2\n        /* \"#utility.yul\":2202:2212   */\n      dup2\n        /* \"#utility.yul\":2199:2221   */\n      lt\n        /* \"#utility.yul\":2178:2196   */\n      0xffffffffffffffff\n        /* \"#utility.yul\":2166:2176   */\n      dup3\n        /* \"#utility.yul\":2163:2197   */\n      gt\n        /* \"#utility.yul\":2160:2222   */\n      or\n        /* \"#utility.yul\":2157:2245   */\n      iszero\n      tag_110\n      jumpi\n        /* \"#utility.yul\":2225:2243   */\n      tag_111\n      tag_63\n      jump\t// in\n    tag_111:\n        /* \"#utility.yul\":2157:2245   */\n    tag_110:\n        /* \"#utility.yul\":2265:2275   */\n      dup1\n        /* \"#utility.yul\":2261:2263   */\n      0x40\n        /* \"#utility.yul\":2254:2276   */\n      mstore\n        /* \"#utility.yul\":2044:2282   */\n      pop\n        /* \"#utility.yul\":2001:2282   */\n      pop\n      pop\n      jump\t// out\n        /* \"#utility.yul\":2288:2417   */\n    tag_65:\n        /* \"#utility.yul\":2322:2328   */\n      0x00\n        /* \"#utility.yul\":2349:2369   */\n      tag_113\n      tag_58\n      jump\t// in\n    tag_113:\n        /* \"#utility.yul\":2339:2369   */\n      swap1\n      pop\n        /* \"#utility.yul\":2378:2411   */\n      tag_114\n        /* \"#utility.yul\":2406:2410   */\n      dup3\n        /* \"#utility.yul\":2398:2404   */\n      dup3\n        /* \"#utility.yul\":2378:2411   */\n      tag_64\n      jump\t// in\n    tag_114:\n        /* \"#utility.yul\":2288:2417   */\n      swap2\n      swap1\n      pop\n      jump\t// out\n        /* \"#utility.yul\":2423:2731   */\n    tag_66:\n        /* \"#utility.yul\":2485:2489   */\n      0x00\n        /* \"#utility.yul\":2575:2593   */\n      0xffffffffffffffff\n        /* \"#utility.yul\":2567:2573   */\n      dup3\n        /* \"#utility.yul\":2564:2594   */\n      gt\n        /* \"#utility.yul\":2561:2617   */\n      iszero\n      tag_116\n      jumpi\n        /* \"#utility.yul\":2597:2615   */\n      tag_117\n      tag_63\n      jump\t// in\n    tag_117:\n        /* \"#utility.yul\":2561:2617   */\n    tag_116:\n        /* \"#utility.yul\":2635:2664   */\n      tag_118\n        /* \"#utility.yul\":2657:2663   */\n      dup3\n        /* \"#utility.yul\":2635:2664   */\n      tag_56\n      jump\t// in\n    tag_118:\n        /* \"#utility.yul\":2627:2664   */\n      swap1\n      pop\n        /* \"#utility.yul\":2719:2723   */\n      0x20\n        /* \"#utility.yul\":2713:2717   */\n      dup2\n        /* \"#utility.yul\":2709:2724   */\n      add\n        /* \"#utility.yul\":2701:2724   */\n      swap1\n      pop\n        /* \"#utility.yul\":2423:2731   */\n      swap2\n      swap1\n      pop\n      jump\t// out\n        /* \"#utility.yul\":2737:2885   */\n    tag_67:\n        /* \"#utility.yul\":2835:2841   */\n      dup3\n        /* \"#utility.yul\":2830:2833   */\n      dup2\n        /* \"#utility.yul\":2825:2828   */\n      dup4\n        /* \"#utility.yul\":2812:2842   */\n      calldatacopy\n        /* \"#utility.yul\":2876:2877   */\n      0x00\n        /* \"#utility.yul\":2867:2873   */\n      dup4\n        /* \"#utility.yul\":2862:2865   */\n      dup4\n        /* \"#utility.yul\":2858:2874   */\n      add\n        /* \"#utility.yul\":2851:2878   */\n      mstore\n        /* \"#utility.yul\":2737:2885   */\n      pop\n      pop\n      pop\n      jump\t// out\n        /* \"#utility.yul\":2891:3316   */\n    tag_68:\n        /* \"#utility.yul\":2969:2974   */\n      0x00\n        /* \"#utility.yul\":2994:3060   */\n      tag_121\n        /* \"#utility.yul\":3010:3059   */\n      tag_122\n        /* \"#utility.yul\":3052:3058   */\n      dup5\n        /* \"#utility.yul\":3010:3059   */\n      tag_66\n      jump\t// in\n    tag_122:\n        /* \"#utility.yul\":2994:3060   */\n      tag_65\n      jump\t// in\n    tag_121:\n        /* \"#utility.yul\":2985:3060   */\n      swap1\n      pop\n        /* \"#utility.yul\":3083:3089   */\n      dup3\n        /* \"#utility.yul\":3076:3081   */\n      dup2\n        /* \"#utility.yul\":3069:3090   */\n      mstore\n        /* \"#utility.yul\":3121:3125   */\n      0x20\n        /* \"#utility.yul\":3114:3119   */\n      dup2\n        /* \"#utility.yul\":3110:3126   */\n      add\n        /* \"#utility.yul\":3159:3162   */\n      dup5\n        /* \"#utility.yul\":3150:3156   */\n      dup5\n        /* \"#utility.yul\":3145:3148   */\n      dup5\n        /* \"#utility.yul\":3141:3157   */\n      add\n        /* \"#utility.yul\":3138:3163   */\n      gt\n        /* \"#utility.yul\":3135:3247   */\n      iszero\n      tag_123\n      jumpi\n        /* \"#utility.yul\":3166:3245   */\n      tag_124\n      tag_62\n      jump\t// in\n    tag_124:\n        /* \"#utility.yul\":3135:3247   */\n    tag_123:\n        /* \"#utility.yul\":3256:3310   */\n      tag_125\n        /* \"#utility.yul\":3303:3309   */\n      dup5\n        /* \"#utility.yul\":3298:3301   */\n      dup3\n        /* \"#utility.yul\":3293:3296   */\n      dup6\n        /* \"#utility.yul\":3256:3310   */\n      tag_67\n      jump\t// in\n    tag_125:\n        /* \"#utility.yul\":2975:3316   */\n      pop\n        /* \"#utility.yul\":2891:3316   */\n      swap4\n      swap3\n      pop\n      pop\n      pop\n      jump\t// out\n        /* \"#utility.yul\":3336:3676   */\n    tag_69:\n        /* \"#utility.yul\":3392:3397   */\n      0x00\n        /* \"#utility.yul\":3441:3444   */\n      dup3\n        /* \"#utility.yul\":3434:3438   */\n      0x1f\n        /* \"#utility.yul\":3426:3432   */\n      dup4\n        /* \"#utility.yul\":3422:3439   */\n      add\n        /* \"#utility.yul\":3418:3445   */\n      slt\n        /* \"#utility.yul\":3408:3530   */\n      tag_127\n      jumpi\n        /* \"#utility.yul\":3449:3528   */\n      tag_128\n      tag_61\n      jump\t// in\n    tag_128:\n        /* \"#utility.yul\":3408:3530   */\n    tag_127:\n        /* \"#utility.yul\":3566:3572   */\n      dup2\n        /* \"#utility.yul\":3553:3573   */\n      calldataload\n        /* \"#utility.yul\":3591:3670   */\n      tag_129\n        /* \"#utility.yul\":3666:3669   */\n      dup5\n        /* \"#utility.yul\":3658:3664   */\n      dup3\n        /* \"#utility.yul\":3651:3655   */\n      0x20\n        /* \"#utility.yul\":3643:3649   */\n      dup7\n        /* \"#utility.yul\":3639:3656   */\n      add\n        /* \"#utility.yul\":3591:3670   */\n      tag_68\n      jump\t// in\n    tag_129:\n        /* \"#utility.yul\":3582:3670   */\n      swap2\n      pop\n        /* \"#utility.yul\":3398:3676   */\n      pop\n        /* \"#utility.yul\":3336:3676   */\n      swap3\n      swap2\n      pop\n      pop\n      jump\t// out\n        /* \"#utility.yul\":3682:4191   */\n    tag_15:\n        /* \"#utility.yul\":3751:3757   */\n      0x00\n        /* \"#utility.yul\":3800:3802   */\n      0x20\n        /* \"#utility.yul\":3788:3797   */\n      dup3\n        /* \"#utility.yul\":3779:3786   */\n      dup5\n        /* \"#utility.yul\":3775:3798   */\n      sub\n        /* \"#utility.yul\":3771:3803   */\n      slt\n        /* \"#utility.yul\":3768:3887   */\n      iszero\n      tag_131\n      jumpi\n        /* \"#utility.yul\":3806:3885   */\n      tag_132\n      tag_59\n      jump\t// in\n    tag_132:\n        /* \"#utility.yul\":3768:3887   */\n    tag_131:\n        /* \"#utility.yul\":3954:3955   */\n      0x00\n        /* \"#utility.yul\":3943:3952   */\n      dup3\n        /* \"#utility.yul\":3939:3956   */\n      add\n        /* \"#utility.yul\":3926:3957   */\n      calldataload\n        /* \"#utility.yul\":3984:4002   */\n      0xffffffffffffffff\n        /* \"#utility.yul\":3976:3982   */\n      dup2\n        /* \"#utility.yul\":3973:4003   */\n      gt\n        /* \"#utility.yul\":3970:4087   */\n      iszero\n      tag_133\n      jumpi\n        /* \"#utility.yul\":4006:4085   */\n      tag_134\n      tag_60\n      jump\t// in\n    tag_134:\n        /* \"#utility.yul\":3970:4087   */\n    tag_133:\n        /* \"#utility.yul\":4111:4174   */\n      tag_135\n        /* \"#utility.yul\":4166:4173   */\n      dup5\n        /* \"#utility.yul\":4157:4163   */\n      dup3\n        /* \"#utility.yul\":4146:4155   */\n      dup6\n        /* \"#utility.yul\":4142:4164   */\n      add\n        /* \"#utility.yul\":4111:4174   */\n      tag_69\n      jump\t// in\n    tag_135:\n        /* \"#utility.yul\":4101:4174   */\n      swap2\n      pop\n        /* \"#utility.yul\":3897:4184   */\n      pop\n        /* \"#utility.yul\":3682:4191   */\n      swap3\n      swap2\n      pop\n      pop\n      jump\t// out\n        /* \"#utility.yul\":4197:4274   */\n    tag_70:\n        /* \"#utility.yul\":4234:4241   */\n      0x00\n        /* \"#utility.yul\":4263:4268   */\n      dup2\n        /* \"#utility.yul\":4252:4268   */\n      swap1\n      pop\n        /* \"#utility.yul\":4197:4274   */\n      swap2\n      swap1\n      pop\n      jump\t// out\n        /* \"#utility.yul\":4280:4402   */\n    tag_71:\n        /* \"#utility.yul\":4353:4377   */\n      tag_138\n        /* \"#utility.yul\":4371:4376   */\n      dup2\n        /* \"#utility.yul\":4353:4377   */\n      tag_70\n      jump\t// in\n    tag_138:\n        /* \"#utility.yul\":4346:4351   */\n      dup2\n        /* \"#utility.yul\":4343:4378   */\n      eq\n        /* \"#utility.yul\":4333:4396   */\n      tag_139\n      jumpi\n        /* \"#utility.yul\":4392:4393   */\n      0x00\n        /* \"#utility.yul\":4389:4390   */\n      dup1\n        /* \"#utility.yul\":4382:4394   */\n      revert\n        /* \"#utility.yul\":4333:4396   */\n    tag_139:\n        /* \"#utility.yul\":4280:4402   */\n      pop\n      jump\t// out\n        /* \"#utility.yul\":4408:4547   */\n    tag_72:\n        /* \"#utility.yul\":4454:4459   */\n      0x00\n        /* \"#utility.yul\":4492:4498   */\n      dup2\n        /* \"#utility.yul\":4479:4499   */\n      calldataload\n        /* \"#utility.yul\":4470:4499   */\n      swap1\n      pop\n        /* \"#utility.yul\":4508:4541   */\n      tag_141\n        /* \"#utility.yul\":4535:4540   */\n      dup2\n        /* \"#utility.yul\":4508:4541   */\n      tag_71\n      jump\t// in\n    tag_141:\n        /* \"#utility.yul\":4408:4547   */\n      swap3\n      swap2\n      pop\n      pop\n      jump\t// out\n        /* \"#utility.yul\":4553:4882   */\n    tag_19:\n        /* \"#utility.yul\":4612:4618   */\n      0x00\n        /* \"#utility.yul\":4661:4663   */\n      0x20\n        /* \"#utility.yul\":4649:4658   */\n      dup3\n        /* \"#utility.yul\":4640:4647   */\n      dup5\n        /* \"#utility.yul\":4636:4659   */\n      sub\n        /* \"#utility.yul\":4632:4664   */\n      slt\n        /* \"#utility.yul\":4629:4748   */\n      iszero\n      tag_143\n      jumpi\n        /* \"#utility.yul\":4667:4746   */\n      tag_144\n      tag_59\n      jump\t// in\n    tag_144:\n        /* \"#utility.yul\":4629:4748   */\n    tag_143:\n        /* \"#utility.yul\":4787:4788   */\n      0x00\n        /* \"#utility.yul\":4812:4865   */\n      tag_145\n        /* \"#utility.yul\":4857:4864   */\n      dup5\n        /* \"#utility.yul\":4848:4854   */\n      dup3\n        /* \"#utility.yul\":4837:4846   */\n      dup6\n        /* \"#utility.yul\":4833:4855   */\n      add\n        /* \"#utility.yul\":4812:4865   */\n      tag_72\n      jump\t// in\n    tag_145:\n        /* \"#utility.yul\":4802:4865   */\n      swap2\n      pop\n        /* \"#utility.yul\":4758:4875   */\n      pop\n        /* \"#utility.yul\":4553:4882   */\n      swap3\n      swap2\n      pop\n      pop\n      jump\t// out\n        /* \"#utility.yul\":4888:5006   */\n    tag_73:\n        /* \"#utility.yul\":4975:4999   */\n      tag_147\n        /* \"#utility.yul\":4993:4998   */\n      dup2\n        /* \"#utility.yul\":4975:4999   */\n      tag_70\n      jump\t// in\n    tag_147:\n        /* \"#utility.yul\":4970:4973   */\n      dup3\n        /* \"#utility.yul\":4963:5000   */\n      mstore\n        /* \"#utility.yul\":4888:5006   */\n      pop\n      pop\n      jump\t// out\n        /* \"#utility.yul\":5012:5234   */\n    tag_22:\n        /* \"#utility.yul\":5105:5109   */\n      0x00\n        /* \"#utility.yul\":5143:5145   */\n      0x20\n        /* \"#utility.yul\":5132:5141   */\n      dup3\n        /* \"#utility.yul\":5128:5146   */\n      add\n        /* \"#utility.yul\":5120:5146   */\n      swap1\n      pop\n        /* \"#utility.yul\":5156:5227   */\n      tag_149\n        /* \"#utility.yul\":5224:5225   */\n      0x00\n        /* \"#utility.yul\":5213:5222   */\n      dup4\n        /* \"#utility.yul\":5209:5226   */\n      add\n        /* \"#utility.yul\":5200:5206   */\n      dup5\n        /* \"#utility.yul\":5156:5227   */\n      tag_73\n      jump\t// in\n    tag_149:\n        /* \"#utility.yul\":5012:5234   */\n      swap3\n      swap2\n      pop\n      pop\n      jump\t// out\n        /* \"#utility.yul\":5240:5420   */\n    tag_74:\n        /* \"#utility.yul\":5288:5365   */\n      0x4e487b7100000000000000000000000000000000000000000000000000000000\n        /* \"#utility.yul\":5285:5286   */\n      0x00\n        /* \"#utility.yul\":5278:5366   */\n      mstore\n        /* \"#utility.yul\":5385:5389   */\n      0x22\n        /* \"#utility.yul\":5382:5383   */\n      0x04\n        /* \"#utility.yul\":5375:5390   */\n      mstore\n        /* \"#utility.yul\":5409:5413   */\n      0x24\n        /* \"#utility.yul\":5406:5407   */\n      0x00\n        /* \"#utility.yul\":5399:5414   */\n      revert\n        /* \"#utility.yul\":5426:5746   */\n    tag_35:\n        /* \"#utility.yul\":5470:5476   */\n      0x00\n        /* \"#utility.yul\":5507:5508   */\n      0x02\n        /* \"#utility.yul\":5501:5505   */\n      dup3\n        /* \"#utility.yul\":5497:5509   */\n      div\n        /* \"#utility.yul\":5487:5509   */\n      swap1\n      pop\n        /* \"#utility.yul\":5554:5555   */\n      0x01\n        /* \"#utility.yul\":5548:5552   */\n      dup3\n        /* \"#utility.yul\":5544:5556   */\n      and\n        /* \"#utility.yul\":5575:5593   */\n      dup1\n        /* \"#utility.yul\":5565:5646   */\n      tag_152\n      jumpi\n        /* \"#utility.yul\":5631:5635   */\n      0x7f\n        /* \"#utility.yul\":5623:5629   */\n      dup3\n        /* \"#utility.yul\":5619:5636   */\n      and\n        /* \"#utility.yul\":5609:5636   */\n      swap2\n      pop\n        /* \"#utility.yul\":5565:5646   */\n    tag_152:\n        /* \"#utility.yul\":5693:5695   */\n      0x20\n        /* \"#utility.yul\":5685:5691   */\n      dup3\n        /* \"#utility.yul\":5682:5696   */\n      lt\n        /* \"#utility.yul\":5662:5680   */\n      dup2\n        /* \"#utility.yul\":5659:5697   */\n      sub\n        /* \"#utility.yul\":5656:5740   */\n      tag_153\n      jumpi\n        /* \"#utility.yul\":5712:5730   */\n      tag_154\n      tag_74\n      jump\t// in\n    tag_154:\n        /* \"#utility.yul\":5656:5740   */\n    tag_153:\n        /* \"#utility.yul\":5477:5746   */\n      pop\n        /* \"#utility.yul\":5426:5746   */\n      swap2\n      swap1\n      pop\n      jump\t// out\n        /* \"#utility.yul\":5752:5893   */\n    tag_75:\n        /* \"#utility.yul\":5801:5805   */\n      0x00\n        /* \"#utility.yul\":5824:5827   */\n      dup2\n        /* \"#utility.yul\":5816:5827   */\n      swap1\n      pop\n        /* \"#utility.yul\":5847:5850   */\n      dup2\n        /* \"#utility.yul\":5844:5845   */\n      0x00\n        /* \"#utility.yul\":5837:5851   */\n      mstore\n        /* \"#utility.yul\":5881:5885   */\n      0x20\n        /* \"#utility.yul\":5878:5879   */\n      0x00\n        /* \"#utility.yul\":5868:5886   */\n      keccak256\n        /* \"#utility.yul\":5860:5886   */\n      swap1\n      pop\n        /* \"#utility.yul\":5752:5893   */\n      swap2\n      swap1\n      pop\n      jump\t// out\n        /* \"#utility.yul\":5899:5992   */\n    tag_76:\n        /* \"#utility.yul\":5936:5942   */\n      0x00\n        /* \"#utility.yul\":5983:5985   */\n      0x20\n        /* \"#utility.yul\":5978:5980   */\n      0x1f\n        /* \"#utility.yul\":5971:5976   */\n      dup4\n        /* \"#utility.yul\":5967:5981   */\n      add\n        /* \"#utility.yul\":5963:5986   */\n      div\n        /* \"#utility.yul\":5953:5986   */\n      swap1\n      pop\n        /* \"#utility.yul\":5899:5992   */\n      swap2\n      swap1\n      pop\n      jump\t// out\n        /* \"#utility.yul\":5998:6105   */\n    tag_77:\n        /* \"#utility.yul\":6042:6050   */\n      0x00\n        /* \"#utility.yul\":6092:6097   */\n      dup3\n        /* \"#utility.yul\":6086:6090   */\n      dup3\n        /* \"#utility.yul\":6082:6098   */\n      shl\n        /* \"#utility.yul\":6061:6098   */\n      swap1\n      pop\n        /* \"#utility.yul\":5998:6105   */\n      swap3\n      swap2\n      pop\n      pop\n      jump\t// out\n        /* \"#utility.yul\":6111:6504   */\n    tag_78:\n        /* \"#utility.yul\":6180:6186   */\n      0x00\n        /* \"#utility.yul\":6230:6231   */\n      0x08\n        /* \"#utility.yul\":6218:6228   */\n      dup4\n        /* \"#utility.yul\":6214:6232   */\n      mul\n        /* \"#utility.yul\":6253:6350   */\n      tag_159\n        /* \"#utility.yul\":6283:6349   */\n      0xffffffffffffffffffffffffffffffffffffffffffffffffffffffffffffffff\n        /* \"#utility.yul\":6272:6281   */\n      dup3\n        /* \"#utility.yul\":6253:6350   */\n      tag_77\n      jump\t// in\n    tag_159:\n        /* \"#utility.yul\":6371:6410   */\n      tag_160\n        /* \"#utility.yul\":6401:6409   */\n      dup7\n        /* \"#utility.yul\":6390:6399   */\n      dup4\n        /* \"#utility.yul\":6371:6410   */\n      tag_77\n      jump\t// in\n    tag_160:\n        /* \"#utility.yul\":6359:6410   */\n      swap6\n      pop\n        /* \"#utility.yul\":6443:6447   */\n      dup1\n        /* \"#utility.yul\":6439:6448   */\n      not\n        /* \"#utility.yul\":6432:6437   */\n      dup5\n        /* \"#utility.yul\":6428:6449   */\n      and\n        /* \"#utility.yul\":6419:6449   */\n      swap4\n      pop\n        /* \"#utility.yul\":6492:6496   */\n      dup1\n        /* \"#utility.yul\":6482:6490   */\n      dup7\n        /* \"#utility.yul\":6478:6497   */\n      and\n        /* \"#utility.yul\":6471:6476   */\n      dup5\n        /* \"#utility.yul\":6468:6498   */\n      or\n        /* \"#utility.yul\":6458:6498   */\n      swap3\n      pop\n        /* \"#utility.yul\":6187:6504   */\n      pop\n      pop\n        /* \"#utility.yul\":6111:6504   */\n      swap4\n      swap3\n      pop\n      pop\n      pop\n      jump\t// out\n        /* \"#utility.yul\":6510:6570   */\n    tag_79:\n        /* \"#utility.yul\":6538:6541   */\n      0x00\n        /* \"#utility.yul\":6559:6564   */\n      dup2\n        /* \"#utility.yul\":6552:6564   */\n      swap1\n      pop\n        /* \"#utility.yul\":6510:6570   */\n      swap2\n      swap1\n      pop\n      jump\t// out\n        /* \"#utility.yul\":6576:6718   */\n    tag_80:\n        /* \"#utility.yul\":6626:6635   */\n      0x00\n        /* \"#utility.yul\":6659:6712   */\n      tag_163\n        /* \"#utility.yul\":6677:6711   */\n      tag_164\n        /* \"#utility.yul\":6686:6710   */\n      tag_165\n        /* \"#utility.yul\":6704:6709   */\n      dup5\n        /* \"#utility.yul\":6686:6710   */\n      tag_70\n      jump\t// in\n    tag_165:\n        /* \"#utility.yul\":6677:6711   */\n      tag_79\n      jump\t// in\n    tag_164:\n        /* \"#utility.yul\":6659:6712   */\n      tag_70\n      jump\t// in\n    tag_163:\n        /* \"#utility.yul\":6646:6712   */\n      swap1\n      pop\n        /* \"#utility.yul\":6576:6718   */\n      swap2\n      swap1\n      pop\n      jump\t// out\n        /* \"#utility.yul\":6724:6799   */\n    tag_81:\n        /* \"#utility.yul\":6767:6770   */\n      0x00\n        /* \"#utility.yul\":6788:6793   */\n      dup2\n        /* \"#utility.yul\":6781:6793   */\n      swap1\n      pop\n        /* \"#utility.yul\":6724:6799   */\n      swap2\n      swap1\n      pop\n      jump\t// out\n        /* \"#utility.yul\":6805:7074   */\n    tag_82:\n        /* \"#utility.yul\":6915:6954   */\n      tag_168\n        /* \"#utility.yul\":6946:6953   */\n      dup4\n        /* \"#utility.yul\":6915:6954   */\n      tag_80\n      jump\t// in\n    tag_168:\n        /* \"#utility.yul\":6976:7067   */\n      tag_169\n        /* \"#utility.yul\":7025:7066   */\n      tag_170\n        /* \"#utility.yul\":7049:7065   */\n      dup3\n        /* \"#utility.yul\":7025:7066   */\n      tag_81\n      jump\t// in\n    tag_170:\n        /* \"#utility.yul\":7017:7023   */\n      dup5\n        /* \"#utility.yul\":7010:7014   */\n      dup5\n        /* \"#utility.yul\":7004:7015   */\n      sload\n        /* \"#utility.yul\":6976:7067   */\n      tag_78\n      jump\t// in\n    tag_169:\n        /* \"#utility.yul\":6970:6974   */\n      dup3\n        /* \"#utility.yul\":6963:7068   */\n      sstore\n        /* \"#utility.yul\":6881:7074   */\n      pop\n        /* \"#utility.yul\":6805:7074   */\n      pop\n      pop\n      pop\n      jump\t// out\n        /* \"#utility.yul\":7080:7153   */\n    tag_83:\n        /* \"#utility.yul\":7125:7128   */\n      0x00\n        /* \"#utility.yul\":7080:7153   */\n      swap1\n      jump\t// out\n        /* \"#utility.yul\":7159:7348   */\n    tag_84:\n        /* \"#utility.yul\":7236:7268   */\n      tag_173\n      tag_83\n      jump\t// in\n    tag_173:\n        /* \"#utility.yul\":7277:7342   */\n      tag_174\n        /* \"#utility.yul\":7335:7341   */\n      dup2\n        /* \"#utility.yul\":7327:7333   */\n      dup5\n        /* \"#utility.yul\":7321:7325   */\n      dup5\n        /* \"#utility.yul\":7277:7342   */\n      tag_82\n      jump\t// in\n    tag_174:\n        /* \"#utility.yul\":7212:7348   */\n      pop\n        /* \"#utility.yul\":7159:7348   */\n      pop\n      pop\n      jump\t// out\n        /* \"#utility.yul\":7354:7540   */\n    tag_85:\n        /* \"#utility.yul\":7414:7534   */\n    tag_176:\n        /* \"#utility.yul\":7431:7434   */\n      dup2\n        /* \"#utility.yul\":7424:7429   */\n      dup2\n        /* \"#utility.yul\":7421:7435   */\n      lt\n        /* \"#utility.yul\":7414:7534   */\n      iszero\n      tag_178\n      jumpi\n        /* \"#utility.yul\":7485:7524   */\n      tag_179\n        /* \"#utility.yul\":7522:7523   */\n      0x00\n        /* \"#utility.yul\":7515:7520   */\n      dup3\n        /* \"#utility.yul\":7485:7524   */\n      tag_84\n      jump\t// in\n    tag_179:\n        /* \"#utility.yul\":7458:7459   */\n      0x01\n        /* \"#utility.yul\":7451:7456   */\n      dup2\n        /* \"#utility.yul\":7447:7460   */\n      add\n        /* \"#utility.yul\":7438:7460   */\n      swap1\n      pop\n        /* \"#utility.yul\":7414:7534   */\n      jump(tag_176)\n    tag_178:\n        /* \"#utility.yul\":7354:7540   */\n      pop\n      pop\n      jump\t// out\n        /* \"#utility.yul\":7546:8089   */\n    tag_86:\n        /* \"#utility.yul\":7647:7649   */\n      0x1f\n        /* \"#utility.yul\":7642:7645   */\n      dup3\n        /* \"#utility.yul\":7639:7650   */\n      gt\n        /* \"#utility.yul\":7636:8082   */\n      iszero\n      tag_181\n      jumpi\n        /* \"#utility.yul\":7681:7719   */\n      tag_182\n        /* \"#utility.yul\":7713:7718   */\n      dup2\n        /* \"#utility.yul\":7681:7719   */\n      tag_75\n      jump\t// in\n    tag_182:\n        /* \"#utility.yul\":7765:7794   */\n      tag_183\n        /* \"#utility.yul\":7783:7793   */\n      dup5\n        /* \"#utility.yul\":7765:7794   */\n      tag_76\n      jump\t// in\n    tag_183:\n        /* \"#utility.yul\":7755:7763   */\n      dup2\n        /* \"#utility.yul\":7751:7795   */\n      add\n        /* \"#utility.yul\":7948:7950   */\n      0x20\n        /* \"#utility.yul\":7936:7946   */\n      dup6\n        /* \"#utility.yul\":7933:7951   */\n      lt\n        /* \"#utility.yul\":7930:7979   */\n      iszero\n      tag_184\n      jumpi\n        /* \"#utility.yul\":7969:7977   */\n      dup2\n        /* \"#utility.yul\":7954:7977   */\n      swap1\n      pop\n        /* \"#utility.yul\":7930:7979   */\n    tag_184:\n        /* \"#utility.yul\":7992:8072   */\n      tag_185\n        /* \"#utility.yul\":8048:8070   */\n      tag_186\n        /* \"#utility.yul\":8066:8069   */\n      dup6\n        /* \"#utility.yul\":8048:8070   */\n      tag_76\n      jump\t// in\n    tag_186:\n        /* \"#utility.yul\":8038:8046   */\n      dup4\n        /* \"#utility.yul\":8034:8071   */\n      add\n        /* \"#utility.yul\":8021:8032   */\n      dup3\n        /* \"#utility.yul\":7992:8072   */\n      tag_85\n      jump\t// in\n    tag_185:\n        /* \"#utility.yul\":7651:8082   */\n      pop\n      pop\n        /* \"#utility.yul\":7636:8082   */\n    tag_181:\n        /* \"#utility.yul\":7546:8089   */\n      pop\n      pop\n      pop\n      jump\t// out\n        /* \"#utility.yul\":8095:8212   */\n    tag_87:\n        /* \"#utility.yul\":8149:8157   */\n      0x00\n        /* \"#utility.yul\":8199:8204   */\n      dup3\n        /* \"#utility.yul\":8193:8197   */\n      dup3\n        /* \"#utility.yul\":8189:8205   */\n      shr\n        /* \"#utility.yul\":8168:8205   */\n      swap1\n      pop\n        /* \"#utility.yul\":8095:8212   */\n      swap3\n      swap2\n      pop\n      pop\n      jump\t// out\n        /* \"#utility.yul\":8218:8387   */\n    tag_88:\n        /* \"#utility.yul\":8262:8268   */\n      0x00\n        /* \"#utility.yul\":8295:8346   */\n      tag_189\n        /* \"#utility.yul\":8343:8344   */\n      0x00\n        /* \"#utility.yul\":8339:8345   */\n      not\n        /* \"#utility.yul\":8331:8336   */\n      dup5\n        /* \"#utility.yul\":8328:8329   */\n      0x08\n        /* \"#utility.yul\":8324:8337   */\n      mul\n        /* \"#utility.yul\":8295:8346   */\n      tag_87\n      jump\t// in\n    tag_189:\n        /* \"#utility.yul\":8291:8347   */\n      not\n        /* \"#utility.yul\":8376:8380   */\n      dup1\n        /* \"#utility.yul\":8370:8374   */\n      dup4\n        /* \"#utility.yul\":8366:8381   */\n      and\n        /* \"#utility.yul\":8356:8381   */\n      swap2\n      pop\n        /* \"#utility.yul\":8269:8387   */\n      pop\n        /* \"#utility.yul\":8218:8387   */\n      swap3\n      swap2\n      pop\n      pop\n      jump\t// out\n        /* \"#utility.yul\":8392:8687   */\n    tag_89:\n        /* \"#utility.yul\":8468:8472   */\n      0x00\n        /* \"#utility.yul\":8614:8643   */\n      tag_191\n        /* \"#utility.yul\":8639:8642   */\n      dup4\n        /* \"#utility.yul\":8633:8637   */\n      dup4\n        /* \"#utility.yul\":8614:8643   */\n      tag_88\n      jump\t// in\n    tag_191:\n        /* \"#utility.yul\":8606:8643   */\n      swap2\n      pop\n        /* \"#utility.yul\":8676:8679   */\n      dup3\n        /* \"#utility.yul\":8673:8674   */\n      0x02\n        /* \"#utility.yul\":8669:8680   */\n      mul\n        /* \"#utility.yul\":8663:8667   */\n      dup3\n        /* \"#utility.yul\":8660:8681   */\n      or\n        /* \"#utility.yul\":8652:8681   */\n      swap1\n      pop\n        /* \"#utility.yul\":8392:8687   */\n      swap3\n      swap2\n      pop\n      pop\n      jump\t// out\n        /* \"#utility.yul\":8692:10087   */\n    tag_42:\n        /* \"#utility.yul\":8809:8846   */\n      tag_193\n        /* \"#utility.yul\":8842:8845   */\n      dup3\n        /* \"#utility.yul\":8809:8846   */\n      tag_53\n      jump\t// in\n    tag_193:\n        /* \"#utility.yul\":8911:8929   */\n      0xffffffffffffffff\n        /* \"#utility.yul\":8903:8909   */\n      dup2\n        /* \"#utility.yul\":8900:8930   */\n      gt\n        /* \"#utility.yul\":8897:8953   */\n      iszero\n      tag_194\n      jumpi\n        /* \"#utility.yul\":8933:8951   */\n      tag_195\n      tag_63\n      jump\t// in\n    tag_195:\n        /* \"#utility.yul\":8897:8953   */\n    tag_194:\n        /* \"#utility.yul\":8977:9015   */\n      tag_196\n        /* \"#utility.yul\":9009:9013   */\n      dup3\n        /* \"#utility.yul\":9003:9014   */\n      sload\n        /* \"#utility.yul\":8977:9015   */\n      tag_35\n      jump\t// in\n    tag_196:\n        /* \"#utility.yul\":9062:9129   */\n      tag_197\n        /* \"#utility.yul\":9122:9128   */\n      dup3\n        /* \"#utility.yul\":9114:9120   */\n      dup3\n        /* \"#utility.yul\":9108:9112   */\n      dup6\n        /* \"#utility.yul\":9062:9129   */\n      tag_86\n      jump\t// in\n    tag_197:\n        /* \"#utility.yul\":9156:9157   */\n      0x00\n        /* \"#utility.yul\":9180:9184   */\n      0x20\n        /* \"#utility.yul\":9167:9184   */\n      swap1\n      pop\n        /* \"#utility.yul\":9212:9214   */\n      0x1f\n        /* \"#utility.yul\":9204:9210   */\n      dup4\n        /* \"#utility.yul\":9201:9215   */\n      gt\n        /* \"#utility.yul\":9229:9230   */\n      0x01\n        /* \"#utility.yul\":9224:9842   */\n      dup2\n      eq\n      tag_199\n      jumpi\n        /* \"#utility.yul\":9886:9887   */\n      0x00\n        /* \"#utility.yul\":9903:9909   */\n      dup5\n        /* \"#utility.yul\":9900:9977   */\n      iszero\n      tag_200\n      jumpi\n        /* \"#utility.yul\":9952:9961   */\n      dup3\n        /* \"#utility.yul\":9947:9950   */\n      dup8\n        /* \"#utility.yul\":9943:9962   */\n      add\n        /* \"#utility.yul\":9937:9963   */\n      mload\n        /* \"#utility.yul\":9928:9963   */\n      swap1\n      pop\n        /* \"#utility.yul\":9900:9977   */\n    tag_200:\n        /* \"#utility.yul\":10003:10070   */\n      tag_201\n        /* \"#utility.yul\":10063:10069   */\n      dup6\n        /* \"#utility.yul\":10056:10061   */\n      dup3\n        /* \"#utility.yul\":10003:10070   */\n      tag_89\n      jump\t// in\n    tag_201:\n        /* \"#utility.yul\":9997:10001   */\n      dup7\n        /* \"#utility.yul\":9990:10071   */\n      sstore\n        /* \"#utility.yul\":9859:10081   */\n      pop\n        /* \"#utility.yul\":9194:10081   */\n      jump(tag_198)\n        /* \"#utility.yul\":9224:9842   */\n    tag_199:\n        /* \"#utility.yul\":9276:9280   */\n      0x1f\n        /* \"#utility.yul\":9272:9281   */\n      not\n        /* \"#utility.yul\":9264:9270   */\n      dup5\n        /* \"#utility.yul\":9260:9282   */\n      and\n        /* \"#utility.yul\":9310:9347   */\n      tag_202\n        /* \"#utility.yul\":9342:9346   */\n      dup7\n        /* \"#utility.yul\":9310:9347   */\n      tag_75\n      jump\t// in\n    tag_202:\n        /* \"#utility.yul\":9369:9370   */\n      0x00\n        /* \"#utility.yul\":9383:9591   */\n    tag_203:\n        /* \"#utility.yul\":9397:9404   */\n      dup3\n        /* \"#utility.yul\":9394:9395   */\n      dup2\n        /* \"#utility.yul\":9391:9405   */\n      lt\n        /* \"#utility.yul\":9383:9591   */\n      iszero\n      tag_205\n      jumpi\n        /* \"#utility.yul\":9476:9485   */\n      dup5\n        /* \"#utility.yul\":9471:9474   */\n      dup10\n        /* \"#utility.yul\":9467:9486   */\n      add\n        /* \"#utility.yul\":9461:9487   */\n      mload\n        /* \"#utility.yul\":9453:9459   */\n      dup3\n        /* \"#utility.yul\":9446:9488   */\n      sstore\n        /* \"#utility.yul\":9527:9528   */\n      0x01\n        /* \"#utility.yul\":9519:9525   */\n      dup3\n        /* \"#utility.yul\":9515:9529   */\n      add\n        /* \"#utility.yul\":9505:9529   */\n      swap2\n      pop\n        /* \"#utility.yul\":9574:9576   */\n      0x20\n        /* \"#utility.yul\":9563:9572   */\n      dup6\n        /* \"#utility.yul\":9559:9577   */\n      add\n        /* \"#utility.yul\":9546:9577   */\n      swap5\n      pop\n        /* \"#utility.yul\":9420:9424   */\n      0x20\n        /* \"#utility.yul\":9417:9418   */\n      dup2\n        /* \"#utility.yul\":9413:9425   */\n      add\n        /* \"#utility.yul\":9408:9425   */\n      swap1\n      pop\n        /* \"#utility.yul\":9383:9591   */\n      jump(tag_203)\n    tag_205:\n        /* \"#utility.yul\":9619:9625   */\n      dup7\n        /* \"#utility.yul\":9610:9617   */\n      dup4\n        /* \"#utility.yul\":9607:9626   */\n      lt\n        /* \"#utility.yul\":9604:9783   */\n      iszero\n      tag_206\n      jumpi\n        /* \"#utility.yul\":9677:9686   */\n      dup5\n        /* \"#utility.yul\":9672:9675   */\n      dup10\n        /* \"#utility.yul\":9668:9687   */\n      add\n        /* \"#utility.yul\":9662:9688   */\n      mload\n        /* \"#utility.yul\":9720:9768   */\n      tag_207\n        /* \"#utility.yul\":9762:9766   */\n      0x1f\n        /* \"#utility.yul\":9754:9760   */\n      dup10\n        /* \"#utility.yul\":9750:9767   */\n      and\n        /* \"#utility.yul\":9739:9748   */\n      dup3\n        /* \"#utility.yul\":9720:9768   */\n      tag_88\n      jump\t// in\n    tag_207:\n        /* \"#utility.yul\":9712:9718   */\n      dup4\n        /* \"#utility.yul\":9705:9769   */\n      sstore\n        /* \"#utility.yul\":9627:9783   */\n      pop\n        /* \"#utility.yul\":9604:9783   */\n    tag_206:\n        /* \"#utility.yul\":9829:9830   */\n      0x01\n        /* \"#utility.yul\":9825:9826   */\n      0x02\n        /* \"#utility.yul\":9817:9823   */\n      dup9\n        /* \"#utility.yul\":9813:9827   */\n      mul\n        /* \"#utility.yul\":9809:9831   */\n      add\n        /* \"#utility.yul\":9803:9807   */\n      dup9\n        /* \"#utility.yul\":9796:9832   */\n      sstore\n        /* \"#utility.yul\":9231:9842   */\n      pop\n      pop\n      pop\n        /* \"#utility.yul\":9194:10081   */\n    tag_198:\n      pop\n        /* \"#utility.yul\":8784:10087   */\n      pop\n      pop\n      pop\n        /* \"#utility.yul\":8692:10087   */\n      pop\n      pop\n      jump\t// out\n        /* \"#utility.yul\":10093:10273   */\n    tag_49:\n        /* \"#utility.yul\":10141:10218   */\n      0x4e487b7100000000000000000000000000000000000000000000000000000000\n        /* \"#utility.yul\":10138:10139   */\n      0x00\n        /* \"#utility.yul\":10131:10219   */\n      mstore\n        /* \"#utility.yul\":10238:10242   */\n      0x32\n        /* \"#utility.yul\":10235:10236   */\n      0x04\n        /* \"#utility.yul\":10228:10243   */\n      mstore\n        /* \"#utility.yul\":10262:10266   */\n      0x24\n        /* \"#utility.yul\":10259:10260   */\n      0x00\n        /* \"#utility.yul\":10252:10267   */\n      revert\n\n    auxdata: 0xa2646970667358221220c5dde0b45a5a6c073c3057daeed308d68cf98c1d750c0ee0024c4b99d6003c5264736f6c634300081a0033\n}\n",
				"bytecode": {
					"linkReferences": {},
					"object": "6080604052348015600e575f80fd5b5061088d8061001c5f395ff3fe608060405234801561000f575f80fd5b5060043610610060575f3560e01c806317d7de7c14610064578063adcfb4fc14610082578063d39fa2331461009e578063f3d4e562146100ce578063fc563658146100ec578063fce680231461011c575b5f80fd5b61006c610138565b6040516100799190610337565b60405180910390f35b61009c60048036038101906100979190610494565b610203565b005b6100b860048036038101906100b3919061050e565b610251565b6040516100c59190610548565b60405180910390f35b6100d6610270565b6040516100e39190610548565b60405180910390f35b6101066004803603810190610101919061050e565b61027b565b6040516101139190610548565b60405180910390f35b6101366004803603810190610131919061050e565b61029f565b005b606060015f3373ffffffffffffffffffffffffffffffffffffffff1673ffffffffffffffffffffffffffffffffffffffff1681526020019081526020015f2080546101829061058e565b80601f01602080910402602001604051908101604052809291908181526020018280546101ae9061058e565b80156101f95780601f106101d0576101008083540402835291602001916101f9565b820191905f5260205f20905b8154815290600101906020018083116101dc57829003601f168201915b5050505050905090565b8060015f3373ffffffffffffffffffffffffffffffffffffffff1673ffffffffffffffffffffffffffffffffffffffff1681526020019081526020015f20908161024d919061075b565b5050565b5f818154811061025f575f80fd5b905f5260205f20015f915090505481565b5f8080549050905090565b5f80828154811061028f5761028e61082a565b5b905f5260205f2001549050919050565b5f81908060018154018082558091505060019003905f5260205f20015f909190919091505550565b5f81519050919050565b5f82825260208201905092915050565b8281835e5f83830152505050565b5f601f19601f8301169050919050565b5f610309826102c7565b61031381856102d1565b93506103238185602086016102e1565b61032c816102ef565b840191505092915050565b5f6020820190508181035f83015261034f81846102ff565b905092915050565b5f604051905090565b5f80fd5b5f80fd5b5f80fd5b5f80fd5b7f4e487b71000000000000000000000000000000000000000000000000000000005f52604160045260245ffd5b6103a6826102ef565b810181811067ffffffffffffffff821117156103c5576103c4610370565b5b80604052505050565b5f6103d7610357565b90506103e3828261039d565b919050565b5f67ffffffffffffffff82111561040257610401610370565b5b61040b826102ef565b9050602081019050919050565b828183375f83830152505050565b5f610438610433846103e8565b6103ce565b9050828152602081018484840111156104545761045361036c565b5b61045f848285610418565b509392505050565b5f82601f83011261047b5761047a610368565b5b813561048b848260208601610426565b91505092915050565b5f602082840312156104a9576104a8610360565b5b5f82013567ffffffffffffffff8111156104c6576104c5610364565b5b6104d284828501610467565b91505092915050565b5f819050919050565b6104ed816104db565b81146104f7575f80fd5b50565b5f81359050610508816104e4565b92915050565b5f6020828403121561052357610522610360565b5b5f610530848285016104fa565b91505092915050565b610542816104db565b82525050565b5f60208201905061055b5f830184610539565b92915050565b7f4e487b71000000000000000000000000000000000000000000000000000000005f52602260045260245ffd5b5f60028204905060018216806105a557607f821691505b6020821081036105b8576105b7610561565b5b50919050565b5f819050815f5260205f209050919050565b5f6020601f8301049050919050565b5f82821b905092915050565b5f6008830261061a7fffffffffffffffffffffffffffffffffffffffffffffffffffffffffffffffff826105df565b61062486836105df565b95508019841693508086168417925050509392505050565b5f819050919050565b5f61065f61065a610655846104db565b61063c565b6104db565b9050919050565b5f819050919050565b61067883610645565b61068c61068482610666565b8484546105eb565b825550505050565b5f90565b6106a0610694565b6106ab81848461066f565b505050565b5b818110156106ce576106c35f82610698565b6001810190506106b1565b5050565b601f821115610713576106e4816105be565b6106ed846105d0565b810160208510156106fc578190505b610710610708856105d0565b8301826106b0565b50505b505050565b5f82821c905092915050565b5f6107335f1984600802610718565b1980831691505092915050565b5f61074b8383610724565b9150826002028217905092915050565b610764826102c7565b67ffffffffffffffff81111561077d5761077c610370565b5b610787825461058e565b6107928282856106d2565b5f60209050601f8311600181146107c3575f84156107b1578287015190505b6107bb8582610740565b865550610822565b601f1984166107d1866105be565b5f5b828110156107f8578489015182556001820191506020850194506020810190506107d3565b868310156108155784890151610811601f891682610724565b8355505b6001600288020188555050505b505050505050565b7f4e487b71000000000000000000000000000000000000000000000000000000005f52603260045260245ffdfea2646970667358221220c5dde0b45a5a6c073c3057daeed308d68cf98c1d750c0ee0024c4b99d6003c5264736f6c634300081a0033",
					"opcodes": "PUSH1 0x80 PUSH1 0x40 MSTORE CALLVALUE DUP1 ISZERO PUSH1 0xE JUMPI PUSH0 DUP1 REVERT JUMPDEST POP PUSH2 0x88D DUP1 PUSH2 0x1C PUSH0 CODECOPY PUSH0 RETURN INVALID PUSH1 0x80 PUSH1 0x40 MSTORE CALLVALUE DUP1 ISZERO PUSH2 0xF JUMPI PUSH0 DUP1 REVERT JUMPDEST POP PUSH1 0x4 CALLDATASIZE LT PUSH2 0x60 JUMPI PUSH0 CALLDATALOAD PUSH1 0xE0 SHR DUP1 PUSH4 0x17D7DE7C EQ PUSH2 0x64 JUMPI DUP1 PUSH4 0xADCFB4FC EQ PUSH2 0x82 JUMPI DUP1 PUSH4 0xD39FA233 EQ PUSH2 0x9E JUMPI DUP1 PUSH4 0xF3D4E562 EQ PUSH2 0xCE JUMPI DUP1 PUSH4 0xFC563658 EQ PUSH2 0xEC JUMPI DUP1 PUSH4 0xFCE68023 EQ PUSH2 0x11C JUMPI JUMPDEST PUSH0 DUP1 REVERT JUMPDEST PUSH2 0x6C PUSH2 0x138 JUMP JUMPDEST PUSH1 0x40 MLOAD PUSH2 0x79 SWAP2 SWAP1 PUSH2 0x337 JUMP JUMPDEST PUSH1 0x40 MLOAD DUP1 SWAP2 SUB SWAP1 RETURN JUMPDEST PUSH2 0x9C PUSH1 0x4 DUP1 CALLDATASIZE SUB DUP2 ADD SWAP1 PUSH2 0x97 SWAP2 SWAP1 PUSH2 0x494 JUMP JUMPDEST PUSH2 0x203 JUMP JUMPDEST STOP JUMPDEST PUSH2 0xB8 PUSH1 0x4 DUP1 CALLDATASIZE SUB DUP2 ADD SWAP1 PUSH2 0xB3 SWAP2 SWAP1 PUSH2 0x50E JUMP JUMPDEST PUSH2 0x251 JUMP JUMPDEST PUSH1 0x40 MLOAD PUSH2 0xC5 SWAP2 SWAP1 PUSH2 0x548 JUMP JUMPDEST PUSH1 0x40 MLOAD DUP1 SWAP2 SUB SWAP1 RETURN JUMPDEST PUSH2 0xD6 PUSH2 0x270 JUMP JUMPDEST PUSH1 0x40 MLOAD PUSH2 0xE3 SWAP2 SWAP1 PUSH2 0x548 JUMP JUMPDEST PUSH1 0x40 MLOAD DUP1 SWAP2 SUB SWAP1 RETURN JUMPDEST PUSH2 0x106 PUSH1 0x4 DUP1 CALLDATASIZE SUB DUP2 ADD SWAP1 PUSH2 0x101 SWAP2 SWAP1 PUSH2 0x50E JUMP JUMPDEST PUSH2 0x27B JUMP JUMPDEST PUSH1 0x40 MLOAD PUSH2 0x113 SWAP2 SWAP1 PUSH2 0x548 JUMP JUMPDEST PUSH1 0x40 MLOAD DUP1 SWAP2 SUB SWAP1 RETURN JUMPDEST PUSH2 0x136 PUSH1 0x4 DUP1 CALLDATASIZE SUB DUP2 ADD SWAP1 PUSH2 0x131 SWAP2 SWAP1 PUSH2 0x50E JUMP JUMPDEST PUSH2 0x29F JUMP JUMPDEST STOP JUMPDEST PUSH1 0x60 PUSH1 0x1 PUSH0 CALLER PUSH20 0xFFFFFFFFFFFFFFFFFFFFFFFFFFFFFFFFFFFFFFFF AND PUSH20 0xFFFFFFFFFFFFFFFFFFFFFFFFFFFFFFFFFFFFFFFF AND DUP2 MSTORE PUSH1 0x20 ADD SWAP1 DUP2 MSTORE PUSH1 0x20 ADD PUSH0 KECCAK256 DUP1 SLOAD PUSH2 0x182 SWAP1 PUSH2 0x58E JUMP JUMPDEST DUP1 PUSH1 0x1F ADD PUSH1 0x20 DUP1 SWAP2 DIV MUL PUSH1 0x20 ADD PUSH1 0x40 MLOAD SWAP1 DUP2 ADD PUSH1 0x40 MSTORE DUP1 SWAP3 SWAP2 SWAP1 DUP2 DUP2 MSTORE PUSH1 0x20 ADD DUP3 DUP1 SLOAD PUSH2 0x1AE SWAP1 PUSH2 0x58E JUMP JUMPDEST DUP1 ISZERO PUSH2 0x1F9 JUMPI DUP1 PUSH1 0x1F LT PUSH2 0x1D0 JUMPI PUSH2 0x100 DUP1 DUP4 SLOAD DIV MUL DUP4 MSTORE SWAP2 PUSH1 0x20 ADD SWAP2 PUSH2 0x1F9 JUMP JUMPDEST DUP3 ADD SWAP2 SWAP1 PUSH0 MSTORE PUSH1 0x20 PUSH0 KECCAK256 SWAP1 JUMPDEST DUP2 SLOAD DUP2 MSTORE SWAP1 PUSH1 0x1 ADD SWAP1 PUSH1 0x20 ADD DUP1 DUP4 GT PUSH2 0x1DC JUMPI DUP3 SWAP1 SUB PUSH1 0x1F AND DUP3 ADD SWAP2 JUMPDEST POP POP POP POP POP SWAP1 POP SWAP1 JUMP JUMPDEST DUP1 PUSH1 0x1 PUSH0 CALLER PUSH20 0xFFFFFFFFFFFFFFFFFFFFFFFFFFFFFFFFFFFFFFFF AND PUSH20 0xFFFFFFFFFFFFFFFFFFFFFFFFFFFFFFFFFFFFFFFF AND DUP2 MSTORE PUSH1 0x20 ADD SWAP1 DUP2 MSTORE PUSH1 0x20 ADD PUSH0 KECCAK256 SWAP1 DUP2 PUSH2 0x24D SWAP2 SWAP1 PUSH2 0x75B JUMP JUMPDEST POP POP JUMP JUMPDEST PUSH0 DUP2 DUP2 SLOAD DUP2 LT PUSH2 0x25F JUMPI PUSH0 DUP1 REVERT JUMPDEST SWAP1 PUSH0 MSTORE PUSH1 0x20 PUSH0 KECCAK256 ADD PUSH0 SWAP2 POP SWAP1 POP SLOAD DUP2 JUMP JUMPDEST PUSH0 DUP1 DUP1 SLOAD SWAP1 POP SWAP1 POP SWAP1 JUMP JUMPDEST PUSH0 DUP1 DUP3 DUP2 SLOAD DUP2 LT PUSH2 0x28F JUMPI PUSH2 0x28E PUSH2 0x82A JUMP JUMPDEST JUMPDEST SWAP1 PUSH0 MSTORE PUSH1 0x20 PUSH0 KECCAK256 ADD SLOAD SWAP1 POP SWAP2 SWAP1 POP JUMP JUMPDEST PUSH0 DUP2 SWAP1 DUP1 PUSH1 0x1 DUP2 SLOAD ADD DUP1 DUP3 SSTORE DUP1 SWAP2 POP POP PUSH1 0x1 SWAP1 SUB SWAP1 PUSH0 MSTORE PUSH1 0x20 PUSH0 KECCAK256 ADD PUSH0 SWAP1 SWAP2 SWAP1 SWAP2 SWAP1 SWAP2 POP SSTORE POP JUMP JUMPDEST PUSH0 DUP2 MLOAD SWAP1 POP SWAP2 SWAP1 POP JUMP JUMPDEST PUSH0 DUP3 DUP3 MSTORE PUSH1 0x20 DUP3 ADD SWAP1 POP SWAP3 SWAP2 POP POP JUMP JUMPDEST DUP3 DUP2 DUP4 MCOPY PUSH0 DUP4 DUP4 ADD MSTORE POP POP POP JUMP JUMPDEST PUSH0 PUSH1 0x1F NOT PUSH1 0x1F DUP4 ADD AND SWAP1 POP SWAP2 SWAP1 POP JUMP JUMPDEST PUSH0 PUSH2 0x309 DUP3 PUSH2 0x2C7 JUMP JUMPDEST PUSH2 0x313 DUP2 DUP6 PUSH2 0x2D1 JUMP JUMPDEST SWAP4 POP PUSH2 0x323 DUP2 DUP6 PUSH1 0x20 DUP7 ADD PUSH2 0x2E1 JUMP JUMPDEST PUSH2 0x32C DUP2 PUSH2 0x2EF JUMP JUMPDEST DUP5 ADD SWAP2 POP POP SWAP3 SWAP2 POP POP JUMP JUMPDEST PUSH0 PUSH1 0x20 DUP3 ADD SWAP1 POP DUP2 DUP2 SUB PUSH0 DUP4 ADD MSTORE PUSH2 0x34F DUP2 DUP5 PUSH2 0x2FF JUMP JUMPDEST SWAP1 POP SWAP3 SWAP2 POP POP JUMP JUMPDEST PUSH0 PUSH1 0x40 MLOAD SWAP1 POP SWAP1 JUMP JUMPDEST PUSH0 DUP1 REVERT JUMPDEST PUSH0 DUP1 REVERT JUMPDEST PUSH0 DUP1 REVERT JUMPDEST PUSH0 DUP1 REVERT JUMPDEST PUSH32 0x4E487B7100000000000000000000000000000000000000000000000000000000 PUSH0 MSTORE PUSH1 0x41 PUSH1 0x4 MSTORE PUSH1 0x24 PUSH0 REVERT JUMPDEST PUSH2 0x3A6 DUP3 PUSH2 0x2EF JUMP JUMPDEST DUP2 ADD DUP2 DUP2 LT PUSH8 0xFFFFFFFFFFFFFFFF DUP3 GT OR ISZERO PUSH2 0x3C5 JUMPI PUSH2 0x3C4 PUSH2 0x370 JUMP JUMPDEST JUMPDEST DUP1 PUSH1 0x40 MSTORE POP POP POP JUMP JUMPDEST PUSH0 PUSH2 0x3D7 PUSH2 0x357 JUMP JUMPDEST SWAP1 POP PUSH2 0x3E3 DUP3 DUP3 PUSH2 0x39D JUMP JUMPDEST SWAP2 SWAP1 POP JUMP JUMPDEST PUSH0 PUSH8 0xFFFFFFFFFFFFFFFF DUP3 GT ISZERO PUSH2 0x402 JUMPI PUSH2 0x401 PUSH2 0x370 JUMP JUMPDEST JUMPDEST PUSH2 0x40B DUP3 PUSH2 0x2EF JUMP JUMPDEST SWAP1 POP PUSH1 0x20 DUP2 ADD SWAP1 POP SWAP2 SWAP1 POP JUMP JUMPDEST DUP3 DUP2 DUP4 CALLDATACOPY PUSH0 DUP4 DUP4 ADD MSTORE POP POP POP JUMP JUMPDEST PUSH0 PUSH2 0x438 PUSH2 0x433 DUP5 PUSH2 0x3E8 JUMP JUMPDEST PUSH2 0x3CE JUMP JUMPDEST SWAP1 POP DUP3 DUP2 MSTORE PUSH1 0x20 DUP2 ADD DUP5 DUP5 DUP5 ADD GT ISZERO PUSH2 0x454 JUMPI PUSH2 0x453 PUSH2 0x36C JUMP JUMPDEST JUMPDEST PUSH2 0x45F DUP5 DUP3 DUP6 PUSH2 0x418 JUMP JUMPDEST POP SWAP4 SWAP3 POP POP POP JUMP JUMPDEST PUSH0 DUP3 PUSH1 0x1F DUP4 ADD SLT PUSH2 0x47B JUMPI PUSH2 0x47A PUSH2 0x368 JUMP JUMPDEST JUMPDEST DUP2 CALLDATALOAD PUSH2 0x48B DUP5 DUP3 PUSH1 0x20 DUP7 ADD PUSH2 0x426 JUMP JUMPDEST SWAP2 POP POP SWAP3 SWAP2 POP POP JUMP JUMPDEST PUSH0 PUSH1 0x20 DUP3 DUP5 SUB SLT ISZERO PUSH2 0x4A9 JUMPI PUSH2 0x4A8 PUSH2 0x360 JUMP JUMPDEST JUMPDEST PUSH0 DUP3 ADD CALLDATALOAD PUSH8 0xFFFFFFFFFFFFFFFF DUP2 GT ISZERO PUSH2 0x4C6 JUMPI PUSH2 0x4C5 PUSH2 0x364 JUMP JUMPDEST JUMPDEST PUSH2 0x4D2 DUP5 DUP3 DUP6 ADD PUSH2 0x467 JUMP JUMPDEST SWAP2 POP POP SWAP3 SWAP2 POP POP JUMP JUMPDEST PUSH0 DUP2 SWAP1 POP SWAP2 SWAP1 POP JUMP JUMPDEST PUSH2 0x4ED DUP2 PUSH2 0x4DB JUMP JUMPDEST DUP2 EQ PUSH2 0x4F7 JUMPI PUSH0 DUP1 REVERT JUMPDEST POP JUMP JUMPDEST PUSH0 DUP2 CALLDATALOAD SWAP1 POP PUSH2 0x508 DUP2 PUSH2 0x4E4 JUMP JUMPDEST SWAP3 SWAP2 POP POP JUMP JUMPDEST PUSH0 PUSH1 0x20 DUP3 DUP5 SUB SLT ISZERO PUSH2 0x523 JUMPI PUSH2 0x522 PUSH2 0x360 JUMP JUMPDEST JUMPDEST PUSH0 PUSH2 0x530 DUP5 DUP3 DUP6 ADD PUSH2 0x4FA JUMP JUMPDEST SWAP2 POP POP SWAP3 SWAP2 POP POP JUMP JUMPDEST PUSH2 0x542 DUP2 PUSH2 0x4DB JUMP JUMPDEST DUP3 MSTORE POP POP JUMP JUMPDEST PUSH0 PUSH1 0x20 DUP3 ADD SWAP1 POP PUSH2 0x55B PUSH0 DUP4 ADD DUP5 PUSH2 0x539 JUMP JUMPDEST SWAP3 SWAP2 POP POP JUMP JUMPDEST PUSH32 0x4E487B7100000000000000000000000000000000000000000000000000000000 PUSH0 MSTORE PUSH1 0x22 PUSH1 0x4 MSTORE PUSH1 0x24 PUSH0 REVERT JUMPDEST PUSH0 PUSH1 0x2 DUP3 DIV SWAP1 POP PUSH1 0x1 DUP3 AND DUP1 PUSH2 0x5A5 JUMPI PUSH1 0x7F DUP3 AND SWAP2 POP JUMPDEST PUSH1 0x20 DUP3 LT DUP2 SUB PUSH2 0x5B8 JUMPI PUSH2 0x5B7 PUSH2 0x561 JUMP JUMPDEST JUMPDEST POP SWAP2 SWAP1 POP JUMP JUMPDEST PUSH0 DUP2 SWAP1 POP DUP2 PUSH0 MSTORE PUSH1 0x20 PUSH0 KECCAK256 SWAP1 POP SWAP2 SWAP1 POP JUMP JUMPDEST PUSH0 PUSH1 0x20 PUSH1 0x1F DUP4 ADD DIV SWAP1 POP SWAP2 SWAP1 POP JUMP JUMPDEST PUSH0 DUP3 DUP3 SHL SWAP1 POP SWAP3 SWAP2 POP POP JUMP JUMPDEST PUSH0 PUSH1 0x8 DUP4 MUL PUSH2 0x61A PUSH32 0xFFFFFFFFFFFFFFFFFFFFFFFFFFFFFFFFFFFFFFFFFFFFFFFFFFFFFFFFFFFFFFFF DUP3 PUSH2 0x5DF JUMP JUMPDEST PUSH2 0x624 DUP7 DUP4 PUSH2 0x5DF JUMP JUMPDEST SWAP6 POP DUP1 NOT DUP5 AND SWAP4 POP DUP1 DUP7 AND DUP5 OR SWAP3 POP POP POP SWAP4 SWAP3 POP POP POP JUMP JUMPDEST PUSH0 DUP2 SWAP1 POP SWAP2 SWAP1 POP JUMP JUMPDEST PUSH0 PUSH2 0x65F PUSH2 0x65A PUSH2 0x655 DUP5 PUSH2 0x4DB JUMP JUMPDEST PUSH2 0x63C JUMP JUMPDEST PUSH2 0x4DB JUMP JUMPDEST SWAP1 POP SWAP2 SWAP1 POP JUMP JUMPDEST PUSH0 DUP2 SWAP1 POP SWAP2 SWAP1 POP JUMP JUMPDEST PUSH2 0x678 DUP4 PUSH2 0x645 JUMP JUMPDEST PUSH2 0x68C PUSH2 0x684 DUP3 PUSH2 0x666 JUMP JUMPDEST DUP5 DUP5 SLOAD PUSH2 0x5EB JUMP JUMPDEST DUP3 SSTORE POP POP POP POP JUMP JUMPDEST PUSH0 SWAP1 JUMP JUMPDEST PUSH2 0x6A0 PUSH2 0x694 JUMP JUMPDEST PUSH2 0x6AB DUP2 DUP5 DUP5 PUSH2 0x66F JUMP JUMPDEST POP POP POP JUMP JUMPDEST JUMPDEST DUP2 DUP2 LT ISZERO PUSH2 0x6CE JUMPI PUSH2 0x6C3 PUSH0 DUP3 PUSH2 0x698 JUMP JUMPDEST PUSH1 0x1 DUP2 ADD SWAP1 POP PUSH2 0x6B1 JUMP JUMPDEST POP POP JUMP JUMPDEST PUSH1 0x1F DUP3 GT ISZERO PUSH2 0x713 JUMPI PUSH2 0x6E4 DUP2 PUSH2 0x5BE JUMP JUMPDEST PUSH2 0x6ED DUP5 PUSH2 0x5D0 JUMP JUMPDEST DUP2 ADD PUSH1 0x20 DUP6 LT ISZERO PUSH2 0x6FC JUMPI DUP2 SWAP1 POP JUMPDEST PUSH2 0x710 PUSH2 0x708 DUP6 PUSH2 0x5D0 JUMP JUMPDEST DUP4 ADD DUP3 PUSH2 0x6B0 JUMP JUMPDEST POP POP JUMPDEST POP POP POP JUMP JUMPDEST PUSH0 DUP3 DUP3 SHR SWAP1 POP SWAP3 SWAP2 POP POP JUMP JUMPDEST PUSH0 PUSH2 0x733 PUSH0 NOT DUP5 PUSH1 0x8 MUL PUSH2 0x718 JUMP JUMPDEST NOT DUP1 DUP4 AND SWAP2 POP POP SWAP3 SWAP2 POP POP JUMP JUMPDEST PUSH0 PUSH2 0x74B DUP4 DUP4 PUSH2 0x724 JUMP JUMPDEST SWAP2 POP DUP3 PUSH1 0x2 MUL DUP3 OR SWAP1 POP SWAP3 SWAP2 POP POP JUMP JUMPDEST PUSH2 0x764 DUP3 PUSH2 0x2C7 JUMP JUMPDEST PUSH8 0xFFFFFFFFFFFFFFFF DUP2 GT ISZERO PUSH2 0x77D JUMPI PUSH2 0x77C PUSH2 0x370 JUMP JUMPDEST JUMPDEST PUSH2 0x787 DUP3 SLOAD PUSH2 0x58E JUMP JUMPDEST PUSH2 0x792 DUP3 DUP3 DUP6 PUSH2 0x6D2 JUMP JUMPDEST PUSH0 PUSH1 0x20 SWAP1 POP PUSH1 0x1F DUP4 GT PUSH1 0x1 DUP2 EQ PUSH2 0x7C3 JUMPI PUSH0 DUP5 ISZERO PUSH2 0x7B1 JUMPI DUP3 DUP8 ADD MLOAD SWAP1 POP JUMPDEST PUSH2 0x7BB DUP6 DUP3 PUSH2 0x740 JUMP JUMPDEST DUP7 SSTORE POP PUSH2 0x822 JUMP JUMPDEST PUSH1 0x1F NOT DUP5 AND PUSH2 0x7D1 DUP7 PUSH2 0x5BE JUMP JUMPDEST PUSH0 JUMPDEST DUP3 DUP2 LT ISZERO PUSH2 0x7F8 JUMPI DUP5 DUP10 ADD MLOAD DUP3 SSTORE PUSH1 0x1 DUP3 ADD SWAP2 POP PUSH1 0x20 DUP6 ADD SWAP5 POP PUSH1 0x20 DUP2 ADD SWAP1 POP PUSH2 0x7D3 JUMP JUMPDEST DUP7 DUP4 LT ISZERO PUSH2 0x815 JUMPI DUP5 DUP10 ADD MLOAD PUSH2 0x811 PUSH1 0x1F DUP10 AND DUP3 PUSH2 0x724 JUMP JUMPDEST DUP4 SSTORE POP JUMPDEST PUSH1 0x1 PUSH1 0x2 DUP9 MUL ADD DUP9 SSTORE POP POP POP JUMPDEST POP POP POP POP POP POP JUMP JUMPDEST PUSH32 0x4E487B7100000000000000000000000000000000000000000000000000000000 PUSH0 MSTORE PUSH1 0x32 PUSH1 0x4 MSTORE PUSH1 0x24 PUSH0 REVERT INVALID LOG2 PUSH5 0x6970667358 0x22 SLT KECCAK256 0xC5 0xDD 0xE0 0xB4 GAS GAS PUSH13 0x73C3057DAEED308D68CF98C1D PUSH22 0xC0EE0024C4B99D6003C5264736F6C634300081A0033 "
				},
				"gasEstimates": {
					"creation": {
						"codeDepositCost": "437800",
						"executionCost": "472",
						"totalCost": "438272"
					},
					"external": {
						"addNumber(uint256)": "46908",
						"getName()": "infinite",
						"getNumber(uint256)": "infinite",
						"getNumbersLength()": "2484",
						"numbers(uint256)": "infinite",
						"signUp(string)": "infinite"
					}
				},
				"methodIdentifiers": {
					"addNumber(uint256)": "fce68023",
					"getName()": "17d7de7c",
					"getNumber(uint256)": "fc563658",
					"getNumbersLength()": "f3d4e562",
					"numbers(uint256)": "d39fa233",
					"signUp(string)": "adcfb4fc"
				}
			},
			"storageLayout": {
				"storage": [
					{
						"astId": 4,
						"contract": "contracts/arrays/dynamic.sol:ENS",
						"label": "numbers",
						"offset": 0,
						"slot": "0",
						"type": "t_array(t_uint256)dyn_storage"
					},
					{
						"astId": 41,
						"contract": "contracts/arrays/dynamic.sol:ENS",
						"label": "users",
						"offset": 0,
						"slot": "1",
						"type": "t_mapping(t_address,t_string_storage)"
					}
				],
				"types": {
					"t_address": {
						"encoding": "inplace",
						"label": "address",
						"numberOfBytes": "20"
					},
					"t_array(t_uint256)dyn_storage": {
						"base": "t_uint256",
						"encoding": "dynamic_array",
						"label": "uint256[]",
						"numberOfBytes": "32"
					},
					"t_mapping(t_address,t_string_storage)": {
						"encoding": "mapping",
						"key": "t_address",
						"label": "mapping(address => string)",
						"numberOfBytes": "32",
						"value": "t_string_storage"
					},
					"t_string_storage": {
						"encoding": "bytes",
						"label": "string",
						"numberOfBytes": "32"
					},
					"t_uint256": {
						"encoding": "inplace",
						"label": "uint256",
						"numberOfBytes": "32"
					}
				}
			},
			"userdoc": {
				"kind": "user",
				"methods": {},
				"version": 1
			}
		}
	}
}