{
	"contracts/arrays/normal.sol": {
		"ENS": {
			"abi": [
				{
					"inputs": [],
					"stateMutability": "nonpayable",
					"type": "constructor"
				},
				{
					"inputs": [],
					"name": "getName",
					"outputs": [
						{
							"internalType": "string",
							"name": "",
							"type": "string"
						}
					],
					"stateMutability": "view",
					"type": "function"
				},
				{
					"inputs": [
						{
							"internalType": "uint256",
							"name": "index",
							"type": "uint256"
						}
					],
					"name": "getNumbers",
					"outputs": [
						{
							"internalType": "uint256",
							"name": "",
							"type": "uint256"
						}
					],
					"stateMutability": "view",
					"type": "function"
				},
				{
					"inputs": [
						{
							"internalType": "uint256",
							"name": "",
							"type": "uint256"
						}
					],
					"name": "numbers",
					"outputs": [
						{
							"internalType": "uint256",
							"name": "",
							"type": "uint256"
						}
					],
					"stateMutability": "view",
					"type": "function"
				},
				{
					"inputs": [
						{
							"internalType": "uint256",
							"name": "_num1",
							"type": "uint256"
						},
						{
							"internalType": "uint256",
							"name": "_num2",
							"type": "uint256"
						},
						{
							"internalType": "uint256",
							"name": "_num3",
							"type": "uint256"
						}
					],
					"name": "setNumbers",
					"outputs": [],
					"stateMutability": "nonpayable",
					"type": "function"
				},
				{
					"inputs": [
						{
							"internalType": "string",
							"name": "userName",
							"type": "string"
						}
					],
					"name": "signUp",
					"outputs": [],
					"stateMutability": "nonpayable",
					"type": "function"
				}
			],
			"devdoc": {
				"kind": "dev",
				"methods": {},
				"version": 1
			},
			"evm": {
				"assembly": "    /* \"contracts/arrays/normal.sol\":26:612  contract ENS{... */\n  mstore(0x40, 0x80)\n    /* \"contracts/arrays/normal.sol\":387:408  constructor(){... */\n  callvalue\n  dup1\n  iszero\n  tag_1\n  jumpi\n  0x00\n  dup1\n  revert\ntag_1:\n  pop\n    /* \"contracts/arrays/normal.sol\":26:612  contract ENS{... */\n  dataSize(sub_0)\n  dup1\n  dataOffset(sub_0)\n  0x00\n  codecopy\n  0x00\n  return\nstop\n\nsub_0: assembly {\n        /* \"contracts/arrays/normal.sol\":26:612  contract ENS{... */\n      mstore(0x40, 0x80)\n      callvalue\n      dup1\n      iszero\n      tag_1\n      jumpi\n      0x00\n      dup1\n      revert\n    tag_1:\n      pop\n      jumpi(tag_2, lt(calldatasize, 0x04))\n      shr(0xe0, calldataload(0x00))\n      dup1\n      0x17d7de7c\n      eq\n      tag_3\n      jumpi\n      dup1\n      0x4a7b26ae\n      eq\n      tag_4\n      jumpi\n      dup1\n      0xadcfb4fc\n      eq\n      tag_5\n      jumpi\n      dup1\n      0xb3b3d608\n      eq\n      tag_6\n      jumpi\n      dup1\n      0xd39fa233\n      eq\n      tag_7\n      jumpi\n    tag_2:\n      0x00\n      dup1\n      revert\n        /* \"contracts/arrays/normal.sol\":514:610  function getName() public view returns (string memory){... */\n    tag_3:\n      tag_8\n      tag_9\n      jump\t// in\n    tag_8:\n      mload(0x40)\n      tag_10\n      swap2\n      swap1\n      tag_11\n      jump\t// in\n    tag_10:\n      mload(0x40)\n      dup1\n      swap2\n      sub\n      swap1\n      return\n        /* \"contracts/arrays/normal.sol\":237:332  function getNumbers(uint index) public view returns(uint){... */\n    tag_4:\n      tag_12\n      0x04\n      dup1\n      calldatasize\n      sub\n      dup2\n      add\n      swap1\n      tag_13\n      swap2\n      swap1\n      tag_14\n      jump\t// in\n    tag_13:\n      tag_15\n      jump\t// in\n    tag_12:\n      mload(0x40)\n      tag_16\n      swap2\n      swap1\n      tag_17\n      jump\t// in\n    tag_16:\n      mload(0x40)\n      dup1\n      swap2\n      sub\n      swap1\n      return\n        /* \"contracts/arrays/normal.sol\":416:507  function signUp(string memory userName) public{... */\n    tag_5:\n      tag_18\n      0x04\n      dup1\n      calldatasize\n      sub\n      dup2\n      add\n      swap1\n      tag_19\n      swap2\n      swap1\n      tag_20\n      jump\t// in\n    tag_19:\n      tag_21\n      jump\t// in\n    tag_18:\n      stop\n        /* \"contracts/arrays/normal.sol\":75:231  function setNumbers(uint _num1, uint _num2, uint _num3) public {... */\n    tag_6:\n      tag_22\n      0x04\n      dup1\n      calldatasize\n      sub\n      dup2\n      add\n      swap1\n      tag_23\n      swap2\n      swap1\n      tag_24\n      jump\t// in\n    tag_23:\n      tag_25\n      jump\t// in\n    tag_22:\n      stop\n        /* \"contracts/arrays/normal.sol\":45:67  uint[3] public numbers */\n    tag_7:\n      tag_26\n      0x04\n      dup1\n      calldatasize\n      sub\n      dup2\n      add\n      swap1\n      tag_27\n      swap2\n      swap1\n      tag_14\n      jump\t// in\n    tag_27:\n      tag_28\n      jump\t// in\n    tag_26:\n      mload(0x40)\n      tag_29\n      swap2\n      swap1\n      tag_17\n      jump\t// in\n    tag_29:\n      mload(0x40)\n      dup1\n      swap2\n      sub\n      swap1\n      return\n        /* \"contracts/arrays/normal.sol\":514:610  function getName() public view returns (string memory){... */\n    tag_9:\n        /* \"contracts/arrays/normal.sol\":554:567  string memory */\n      0x60\n        /* \"contracts/arrays/normal.sol\":586:591  users */\n      0x03\n        /* \"contracts/arrays/normal.sol\":586:603  users[msg.sender] */\n      0x00\n        /* \"contracts/arrays/normal.sol\":592:602  msg.sender */\n      caller\n        /* \"contracts/arrays/normal.sol\":586:603  users[msg.sender] */\n      0xffffffffffffffffffffffffffffffffffffffff\n      and\n      0xffffffffffffffffffffffffffffffffffffffff\n      and\n      dup2\n      mstore\n      0x20\n      add\n      swap1\n      dup2\n      mstore\n      0x20\n      add\n      0x00\n      keccak256\n        /* \"contracts/arrays/normal.sol\":579:603  return users[msg.sender] */\n      dup1\n      sload\n      tag_31\n      swap1\n      tag_32\n      jump\t// in\n    tag_31:\n      dup1\n      0x1f\n      add\n      0x20\n      dup1\n      swap2\n      div\n      mul\n      0x20\n      add\n      mload(0x40)\n      swap1\n      dup2\n      add\n      0x40\n      mstore\n      dup1\n      swap3\n      swap2\n      swap1\n      dup2\n      dup2\n      mstore\n      0x20\n      add\n      dup3\n      dup1\n      sload\n      tag_33\n      swap1\n      tag_32\n      jump\t// in\n    tag_33:\n      dup1\n      iszero\n      tag_34\n      jumpi\n      dup1\n      0x1f\n      lt\n      tag_35\n      jumpi\n      0x0100\n      dup1\n      dup4\n      sload\n      div\n      mul\n      dup4\n      mstore\n      swap2\n      0x20\n      add\n      swap2\n      jump(tag_34)\n    tag_35:\n      dup3\n      add\n      swap2\n      swap1\n      0x00\n      mstore\n      keccak256(0x00, 0x20)\n      swap1\n    tag_36:\n      dup2\n      sload\n      dup2\n      mstore\n      swap1\n      0x01\n      add\n      swap1\n      0x20\n      add\n      dup1\n      dup4\n      gt\n      tag_36\n      jumpi\n      dup3\n      swap1\n      sub\n      0x1f\n      and\n      dup3\n      add\n      swap2\n    tag_34:\n      pop\n      pop\n      pop\n      pop\n      pop\n      swap1\n      pop\n        /* \"contracts/arrays/normal.sol\":514:610  function getName() public view returns (string memory){... */\n      swap1\n      jump\t// out\n        /* \"contracts/arrays/normal.sol\":237:332  function getNumbers(uint index) public view returns(uint){... */\n    tag_15:\n        /* \"contracts/arrays/normal.sol\":289:293  uint */\n      0x00\n        /* \"contracts/arrays/normal.sol\":311:318  numbers */\n      dup1\n        /* \"contracts/arrays/normal.sol\":319:324  index */\n      dup3\n        /* \"contracts/arrays/normal.sol\":311:325  numbers[index] */\n      0x03\n      dup2\n      lt\n      tag_38\n      jumpi\n      tag_39\n      tag_40\n      jump\t// in\n    tag_39:\n    tag_38:\n      add\n      sload\n        /* \"contracts/arrays/normal.sol\":304:325  return numbers[index] */\n      swap1\n      pop\n        /* \"contracts/arrays/normal.sol\":237:332  function getNumbers(uint index) public view returns(uint){... */\n      swap2\n      swap1\n      pop\n      jump\t// out\n        /* \"contracts/arrays/normal.sol\":416:507  function signUp(string memory userName) public{... */\n    tag_21:\n        /* \"contracts/arrays/normal.sol\":492:500  userName */\n      dup1\n        /* \"contracts/arrays/normal.sol\":472:477  users */\n      0x03\n        /* \"contracts/arrays/normal.sol\":472:489  users[msg.sender] */\n      0x00\n        /* \"contracts/arrays/normal.sol\":478:488  msg.sender */\n      caller\n        /* \"contracts/arrays/normal.sol\":472:489  users[msg.sender] */\n      0xffffffffffffffffffffffffffffffffffffffff\n      and\n      0xffffffffffffffffffffffffffffffffffffffff\n      and\n      dup2\n      mstore\n      0x20\n      add\n      swap1\n      dup2\n      mstore\n      0x20\n      add\n      0x00\n      keccak256\n        /* \"contracts/arrays/normal.sol\":472:500  users[msg.sender] = userName */\n      swap1\n      dup2\n      tag_43\n      swap2\n      swap1\n      tag_44\n      jump\t// in\n    tag_43:\n      pop\n        /* \"contracts/arrays/normal.sol\":416:507  function signUp(string memory userName) public{... */\n      pop\n      jump\t// out\n        /* \"contracts/arrays/normal.sol\":75:231  function setNumbers(uint _num1, uint _num2, uint _num3) public {... */\n    tag_25:\n        /* \"contracts/arrays/normal.sol\":162:167  _num1 */\n      dup3\n        /* \"contracts/arrays/normal.sol\":149:156  numbers */\n      0x00\n        /* \"contracts/arrays/normal.sol\":157:158  0 */\n      dup1\n        /* \"contracts/arrays/normal.sol\":149:159  numbers[0] */\n      0x03\n      dup2\n      lt\n      tag_46\n      jumpi\n      tag_47\n      tag_40\n      jump\t// in\n    tag_47:\n    tag_46:\n      add\n        /* \"contracts/arrays/normal.sol\":149:167  numbers[0] = _num1 */\n      dup2\n      swap1\n      sstore\n      pop\n        /* \"contracts/arrays/normal.sol\":190:195  _num2 */\n      dup2\n        /* \"contracts/arrays/normal.sol\":177:184  numbers */\n      0x00\n        /* \"contracts/arrays/normal.sol\":185:186  1 */\n      0x01\n        /* \"contracts/arrays/normal.sol\":177:187  numbers[1] */\n      0x03\n      dup2\n      lt\n      tag_49\n      jumpi\n      tag_50\n      tag_40\n      jump\t// in\n    tag_50:\n    tag_49:\n      add\n        /* \"contracts/arrays/normal.sol\":177:195  numbers[1] = _num2 */\n      dup2\n      swap1\n      sstore\n      pop\n        /* \"contracts/arrays/normal.sol\":218:223  _num3 */\n      dup1\n        /* \"contracts/arrays/normal.sol\":205:212  numbers */\n      0x00\n        /* \"contracts/arrays/normal.sol\":213:214  2 */\n      0x02\n        /* \"contracts/arrays/normal.sol\":205:215  numbers[2] */\n      0x03\n      dup2\n      lt\n      tag_52\n      jumpi\n      tag_53\n      tag_40\n      jump\t// in\n    tag_53:\n    tag_52:\n      add\n        /* \"contracts/arrays/normal.sol\":205:223  numbers[2] = _num3 */\n      dup2\n      swap1\n      sstore\n      pop\n        /* \"contracts/arrays/normal.sol\":75:231  function setNumbers(uint _num1, uint _num2, uint _num3) public {... */\n      pop\n      pop\n      pop\n      jump\t// out\n        /* \"contracts/arrays/normal.sol\":45:67  uint[3] public numbers */\n    tag_28:\n      0x00\n      dup2\n      0x03\n      dup2\n      lt\n      tag_55\n      jumpi\n      0x00\n      dup1\n      revert\n    tag_55:\n      add\n      0x00\n      swap2\n      pop\n      swap1\n      pop\n      sload\n      dup2\n      jump\t// out\n        /* \"#utility.yul\":7:106   */\n    tag_57:\n        /* \"#utility.yul\":59:65   */\n      0x00\n        /* \"#utility.yul\":93:98   */\n      dup2\n        /* \"#utility.yul\":87:99   */\n      mload\n        /* \"#utility.yul\":77:99   */\n      swap1\n      pop\n        /* \"#utility.yul\":7:106   */\n      swap2\n      swap1\n      pop\n      jump\t// out\n        /* \"#utility.yul\":112:281   */\n    tag_58:\n        /* \"#utility.yul\":196:207   */\n      0x00\n        /* \"#utility.yul\":230:236   */\n      dup3\n        /* \"#utility.yul\":225:228   */\n      dup3\n        /* \"#utility.yul\":218:237   */\n      mstore\n        /* \"#utility.yul\":270:274   */\n      0x20\n        /* \"#utility.yul\":265:268   */\n      dup3\n        /* \"#utility.yul\":261:275   */\n      add\n        /* \"#utility.yul\":246:275   */\n      swap1\n      pop\n        /* \"#utility.yul\":112:281   */\n      swap3\n      swap2\n      pop\n      pop\n      jump\t// out\n        /* \"#utility.yul\":287:426   */\n    tag_59:\n        /* \"#utility.yul\":376:382   */\n      dup3\n        /* \"#utility.yul\":371:374   */\n      dup2\n        /* \"#utility.yul\":366:369   */\n      dup4\n        /* \"#utility.yul\":360:383   */\n      mcopy\n        /* \"#utility.yul\":417:418   */\n      0x00\n        /* \"#utility.yul\":408:414   */\n      dup4\n        /* \"#utility.yul\":403:406   */\n      dup4\n        /* \"#utility.yul\":399:415   */\n      add\n        /* \"#utility.yul\":392:419   */\n      mstore\n        /* \"#utility.yul\":287:426   */\n      pop\n      pop\n      pop\n      jump\t// out\n        /* \"#utility.yul\":432:534   */\n    tag_60:\n        /* \"#utility.yul\":473:479   */\n      0x00\n        /* \"#utility.yul\":524:526   */\n      0x1f\n        /* \"#utility.yul\":520:527   */\n      not\n        /* \"#utility.yul\":515:517   */\n      0x1f\n        /* \"#utility.yul\":508:513   */\n      dup4\n        /* \"#utility.yul\":504:518   */\n      add\n        /* \"#utility.yul\":500:528   */\n      and\n        /* \"#utility.yul\":490:528   */\n      swap1\n      pop\n        /* \"#utility.yul\":432:534   */\n      swap2\n      swap1\n      pop\n      jump\t// out\n        /* \"#utility.yul\":540:917   */\n    tag_61:\n        /* \"#utility.yul\":628:631   */\n      0x00\n        /* \"#utility.yul\":656:695   */\n      tag_100\n        /* \"#utility.yul\":689:694   */\n      dup3\n        /* \"#utility.yul\":656:695   */\n      tag_57\n      jump\t// in\n    tag_100:\n        /* \"#utility.yul\":711:782   */\n      tag_101\n        /* \"#utility.yul\":775:781   */\n      dup2\n        /* \"#utility.yul\":770:773   */\n      dup6\n        /* \"#utility.yul\":711:782   */\n      tag_58\n      jump\t// in\n    tag_101:\n        /* \"#utility.yul\":704:782   */\n      swap4\n      pop\n        /* \"#utility.yul\":791:856   */\n      tag_102\n        /* \"#utility.yul\":849:855   */\n      dup2\n        /* \"#utility.yul\":844:847   */\n      dup6\n        /* \"#utility.yul\":837:841   */\n      0x20\n        /* \"#utility.yul\":830:835   */\n      dup7\n        /* \"#utility.yul\":826:842   */\n      add\n        /* \"#utility.yul\":791:856   */\n      tag_59\n      jump\t// in\n    tag_102:\n        /* \"#utility.yul\":881:910   */\n      tag_103\n        /* \"#utility.yul\":903:909   */\n      dup2\n        /* \"#utility.yul\":881:910   */\n      tag_60\n      jump\t// in\n    tag_103:\n        /* \"#utility.yul\":876:879   */\n      dup5\n        /* \"#utility.yul\":872:911   */\n      add\n        /* \"#utility.yul\":865:911   */\n      swap2\n      pop\n        /* \"#utility.yul\":632:917   */\n      pop\n        /* \"#utility.yul\":540:917   */\n      swap3\n      swap2\n      pop\n      pop\n      jump\t// out\n        /* \"#utility.yul\":923:1236   */\n    tag_11:\n        /* \"#utility.yul\":1036:1040   */\n      0x00\n        /* \"#utility.yul\":1074:1076   */\n      0x20\n        /* \"#utility.yul\":1063:1072   */\n      dup3\n        /* \"#utility.yul\":1059:1077   */\n      add\n        /* \"#utility.yul\":1051:1077   */\n      swap1\n      pop\n        /* \"#utility.yul\":1123:1132   */\n      dup2\n        /* \"#utility.yul\":1117:1121   */\n      dup2\n        /* \"#utility.yul\":1113:1133   */\n      sub\n        /* \"#utility.yul\":1109:1110   */\n      0x00\n        /* \"#utility.yul\":1098:1107   */\n      dup4\n        /* \"#utility.yul\":1094:1111   */\n      add\n        /* \"#utility.yul\":1087:1134   */\n      mstore\n        /* \"#utility.yul\":1151:1229   */\n      tag_105\n        /* \"#utility.yul\":1224:1228   */\n      dup2\n        /* \"#utility.yul\":1215:1221   */\n      dup5\n        /* \"#utility.yul\":1151:1229   */\n      tag_61\n      jump\t// in\n    tag_105:\n        /* \"#utility.yul\":1143:1229   */\n      swap1\n      pop\n        /* \"#utility.yul\":923:1236   */\n      swap3\n      swap2\n      pop\n      pop\n      jump\t// out\n        /* \"#utility.yul\":1242:1317   */\n    tag_62:\n        /* \"#utility.yul\":1275:1281   */\n      0x00\n        /* \"#utility.yul\":1308:1310   */\n      0x40\n        /* \"#utility.yul\":1302:1311   */\n      mload\n        /* \"#utility.yul\":1292:1311   */\n      swap1\n      pop\n        /* \"#utility.yul\":1242:1317   */\n      swap1\n      jump\t// out\n        /* \"#utility.yul\":1323:1440   */\n    tag_63:\n        /* \"#utility.yul\":1432:1433   */\n      0x00\n        /* \"#utility.yul\":1429:1430   */\n      dup1\n        /* \"#utility.yul\":1422:1434   */\n      revert\n        /* \"#utility.yul\":1446:1563   */\n    tag_64:\n        /* \"#utility.yul\":1555:1556   */\n      0x00\n        /* \"#utility.yul\":1552:1553   */\n      dup1\n        /* \"#utility.yul\":1545:1557   */\n      revert\n        /* \"#utility.yul\":1569:1646   */\n    tag_65:\n        /* \"#utility.yul\":1606:1613   */\n      0x00\n        /* \"#utility.yul\":1635:1640   */\n      dup2\n        /* \"#utility.yul\":1624:1640   */\n      swap1\n      pop\n        /* \"#utility.yul\":1569:1646   */\n      swap2\n      swap1\n      pop\n      jump\t// out\n        /* \"#utility.yul\":1652:1774   */\n    tag_66:\n        /* \"#utility.yul\":1725:1749   */\n      tag_111\n        /* \"#utility.yul\":1743:1748   */\n      dup2\n        /* \"#utility.yul\":1725:1749   */\n      tag_65\n      jump\t// in\n    tag_111:\n        /* \"#utility.yul\":1718:1723   */\n      dup2\n        /* \"#utility.yul\":1715:1750   */\n      eq\n        /* \"#utility.yul\":1705:1768   */\n      tag_112\n      jumpi\n        /* \"#utility.yul\":1764:1765   */\n      0x00\n        /* \"#utility.yul\":1761:1762   */\n      dup1\n        /* \"#utility.yul\":1754:1766   */\n      revert\n        /* \"#utility.yul\":1705:1768   */\n    tag_112:\n        /* \"#utility.yul\":1652:1774   */\n      pop\n      jump\t// out\n        /* \"#utility.yul\":1780:1919   */\n    tag_67:\n        /* \"#utility.yul\":1826:1831   */\n      0x00\n        /* \"#utility.yul\":1864:1870   */\n      dup2\n        /* \"#utility.yul\":1851:1871   */\n      calldataload\n        /* \"#utility.yul\":1842:1871   */\n      swap1\n      pop\n        /* \"#utility.yul\":1880:1913   */\n      tag_114\n        /* \"#utility.yul\":1907:1912   */\n      dup2\n        /* \"#utility.yul\":1880:1913   */\n      tag_66\n      jump\t// in\n    tag_114:\n        /* \"#utility.yul\":1780:1919   */\n      swap3\n      swap2\n      pop\n      pop\n      jump\t// out\n        /* \"#utility.yul\":1925:2254   */\n    tag_14:\n        /* \"#utility.yul\":1984:1990   */\n      0x00\n        /* \"#utility.yul\":2033:2035   */\n      0x20\n        /* \"#utility.yul\":2021:2030   */\n      dup3\n        /* \"#utility.yul\":2012:2019   */\n      dup5\n        /* \"#utility.yul\":2008:2031   */\n      sub\n        /* \"#utility.yul\":2004:2036   */\n      slt\n        /* \"#utility.yul\":2001:2120   */\n      iszero\n      tag_116\n      jumpi\n        /* \"#utility.yul\":2039:2118   */\n      tag_117\n      tag_63\n      jump\t// in\n    tag_117:\n        /* \"#utility.yul\":2001:2120   */\n    tag_116:\n        /* \"#utility.yul\":2159:2160   */\n      0x00\n        /* \"#utility.yul\":2184:2237   */\n      tag_118\n        /* \"#utility.yul\":2229:2236   */\n      dup5\n        /* \"#utility.yul\":2220:2226   */\n      dup3\n        /* \"#utility.yul\":2209:2218   */\n      dup6\n        /* \"#utility.yul\":2205:2227   */\n      add\n        /* \"#utility.yul\":2184:2237   */\n      tag_67\n      jump\t// in\n    tag_118:\n        /* \"#utility.yul\":2174:2237   */\n      swap2\n      pop\n        /* \"#utility.yul\":2130:2247   */\n      pop\n        /* \"#utility.yul\":1925:2254   */\n      swap3\n      swap2\n      pop\n      pop\n      jump\t// out\n        /* \"#utility.yul\":2260:2378   */\n    tag_68:\n        /* \"#utility.yul\":2347:2371   */\n      tag_120\n        /* \"#utility.yul\":2365:2370   */\n      dup2\n        /* \"#utility.yul\":2347:2371   */\n      tag_65\n      jump\t// in\n    tag_120:\n        /* \"#utility.yul\":2342:2345   */\n      dup3\n        /* \"#utility.yul\":2335:2372   */\n      mstore\n        /* \"#utility.yul\":2260:2378   */\n      pop\n      pop\n      jump\t// out\n        /* \"#utility.yul\":2384:2606   */\n    tag_17:\n        /* \"#utility.yul\":2477:2481   */\n      0x00\n        /* \"#utility.yul\":2515:2517   */\n      0x20\n        /* \"#utility.yul\":2504:2513   */\n      dup3\n        /* \"#utility.yul\":2500:2518   */\n      add\n        /* \"#utility.yul\":2492:2518   */\n      swap1\n      pop\n        /* \"#utility.yul\":2528:2599   */\n      tag_122\n        /* \"#utility.yul\":2596:2597   */\n      0x00\n        /* \"#utility.yul\":2585:2594   */\n      dup4\n        /* \"#utility.yul\":2581:2598   */\n      add\n        /* \"#utility.yul\":2572:2578   */\n      dup5\n        /* \"#utility.yul\":2528:2599   */\n      tag_68\n      jump\t// in\n    tag_122:\n        /* \"#utility.yul\":2384:2606   */\n      swap3\n      swap2\n      pop\n      pop\n      jump\t// out\n        /* \"#utility.yul\":2612:2729   */\n    tag_69:\n        /* \"#utility.yul\":2721:2722   */\n      0x00\n        /* \"#utility.yul\":2718:2719   */\n      dup1\n        /* \"#utility.yul\":2711:2723   */\n      revert\n        /* \"#utility.yul\":2735:2852   */\n    tag_70:\n        /* \"#utility.yul\":2844:2845   */\n      0x00\n        /* \"#utility.yul\":2841:2842   */\n      dup1\n        /* \"#utility.yul\":2834:2846   */\n      revert\n        /* \"#utility.yul\":2858:3038   */\n    tag_71:\n        /* \"#utility.yul\":2906:2983   */\n      0x4e487b7100000000000000000000000000000000000000000000000000000000\n        /* \"#utility.yul\":2903:2904   */\n      0x00\n        /* \"#utility.yul\":2896:2984   */\n      mstore\n        /* \"#utility.yul\":3003:3007   */\n      0x41\n        /* \"#utility.yul\":3000:3001   */\n      0x04\n        /* \"#utility.yul\":2993:3008   */\n      mstore\n        /* \"#utility.yul\":3027:3031   */\n      0x24\n        /* \"#utility.yul\":3024:3025   */\n      0x00\n        /* \"#utility.yul\":3017:3032   */\n      revert\n        /* \"#utility.yul\":3044:3325   */\n    tag_72:\n        /* \"#utility.yul\":3127:3154   */\n      tag_127\n        /* \"#utility.yul\":3149:3153   */\n      dup3\n        /* \"#utility.yul\":3127:3154   */\n      tag_60\n      jump\t// in\n    tag_127:\n        /* \"#utility.yul\":3119:3125   */\n      dup2\n        /* \"#utility.yul\":3115:3155   */\n      add\n        /* \"#utility.yul\":3257:3263   */\n      dup2\n        /* \"#utility.yul\":3245:3255   */\n      dup2\n        /* \"#utility.yul\":3242:3264   */\n      lt\n        /* \"#utility.yul\":3221:3239   */\n      0xffffffffffffffff\n        /* \"#utility.yul\":3209:3219   */\n      dup3\n        /* \"#utility.yul\":3206:3240   */\n      gt\n        /* \"#utility.yul\":3203:3265   */\n      or\n        /* \"#utility.yul\":3200:3288   */\n      iszero\n      tag_128\n      jumpi\n        /* \"#utility.yul\":3268:3286   */\n      tag_129\n      tag_71\n      jump\t// in\n    tag_129:\n        /* \"#utility.yul\":3200:3288   */\n    tag_128:\n        /* \"#utility.yul\":3308:3318   */\n      dup1\n        /* \"#utility.yul\":3304:3306   */\n      0x40\n        /* \"#utility.yul\":3297:3319   */\n      mstore\n        /* \"#utility.yul\":3087:3325   */\n      pop\n        /* \"#utility.yul\":3044:3325   */\n      pop\n      pop\n      jump\t// out\n        /* \"#utility.yul\":3331:3460   */\n    tag_73:\n        /* \"#utility.yul\":3365:3371   */\n      0x00\n        /* \"#utility.yul\":3392:3412   */\n      tag_131\n      tag_62\n      jump\t// in\n    tag_131:\n        /* \"#utility.yul\":3382:3412   */\n      swap1\n      pop\n        /* \"#utility.yul\":3421:3454   */\n      tag_132\n        /* \"#utility.yul\":3449:3453   */\n      dup3\n        /* \"#utility.yul\":3441:3447   */\n      dup3\n        /* \"#utility.yul\":3421:3454   */\n      tag_72\n      jump\t// in\n    tag_132:\n        /* \"#utility.yul\":3331:3460   */\n      swap2\n      swap1\n      pop\n      jump\t// out\n        /* \"#utility.yul\":3466:3774   */\n    tag_74:\n        /* \"#utility.yul\":3528:3532   */\n      0x00\n        /* \"#utility.yul\":3618:3636   */\n      0xffffffffffffffff\n        /* \"#utility.yul\":3610:3616   */\n      dup3\n        /* \"#utility.yul\":3607:3637   */\n      gt\n        /* \"#utility.yul\":3604:3660   */\n      iszero\n      tag_134\n      jumpi\n        /* \"#utility.yul\":3640:3658   */\n      tag_135\n      tag_71\n      jump\t// in\n    tag_135:\n        /* \"#utility.yul\":3604:3660   */\n    tag_134:\n        /* \"#utility.yul\":3678:3707   */\n      tag_136\n        /* \"#utility.yul\":3700:3706   */\n      dup3\n        /* \"#utility.yul\":3678:3707   */\n      tag_60\n      jump\t// in\n    tag_136:\n        /* \"#utility.yul\":3670:3707   */\n      swap1\n      pop\n        /* \"#utility.yul\":3762:3766   */\n      0x20\n        /* \"#utility.yul\":3756:3760   */\n      dup2\n        /* \"#utility.yul\":3752:3767   */\n      add\n        /* \"#utility.yul\":3744:3767   */\n      swap1\n      pop\n        /* \"#utility.yul\":3466:3774   */\n      swap2\n      swap1\n      pop\n      jump\t// out\n        /* \"#utility.yul\":3780:3928   */\n    tag_75:\n        /* \"#utility.yul\":3878:3884   */\n      dup3\n        /* \"#utility.yul\":3873:3876   */\n      dup2\n        /* \"#utility.yul\":3868:3871   */\n      dup4\n        /* \"#utility.yul\":3855:3885   */\n      calldatacopy\n        /* \"#utility.yul\":3919:3920   */\n      0x00\n        /* \"#utility.yul\":3910:3916   */\n      dup4\n        /* \"#utility.yul\":3905:3908   */\n      dup4\n        /* \"#utility.yul\":3901:3917   */\n      add\n        /* \"#utility.yul\":3894:3921   */\n      mstore\n        /* \"#utility.yul\":3780:3928   */\n      pop\n      pop\n      pop\n      jump\t// out\n        /* \"#utility.yul\":3934:4359   */\n    tag_76:\n        /* \"#utility.yul\":4012:4017   */\n      0x00\n        /* \"#utility.yul\":4037:4103   */\n      tag_139\n        /* \"#utility.yul\":4053:4102   */\n      tag_140\n        /* \"#utility.yul\":4095:4101   */\n      dup5\n        /* \"#utility.yul\":4053:4102   */\n      tag_74\n      jump\t// in\n    tag_140:\n        /* \"#utility.yul\":4037:4103   */\n      tag_73\n      jump\t// in\n    tag_139:\n        /* \"#utility.yul\":4028:4103   */\n      swap1\n      pop\n        /* \"#utility.yul\":4126:4132   */\n      dup3\n        /* \"#utility.yul\":4119:4124   */\n      dup2\n        /* \"#utility.yul\":4112:4133   */\n      mstore\n        /* \"#utility.yul\":4164:4168   */\n      0x20\n        /* \"#utility.yul\":4157:4162   */\n      dup2\n        /* \"#utility.yul\":4153:4169   */\n      add\n        /* \"#utility.yul\":4202:4205   */\n      dup5\n        /* \"#utility.yul\":4193:4199   */\n      dup5\n        /* \"#utility.yul\":4188:4191   */\n      dup5\n        /* \"#utility.yul\":4184:4200   */\n      add\n        /* \"#utility.yul\":4181:4206   */\n      gt\n        /* \"#utility.yul\":4178:4290   */\n      iszero\n      tag_141\n      jumpi\n        /* \"#utility.yul\":4209:4288   */\n      tag_142\n      tag_70\n      jump\t// in\n    tag_142:\n        /* \"#utility.yul\":4178:4290   */\n    tag_141:\n        /* \"#utility.yul\":4299:4353   */\n      tag_143\n        /* \"#utility.yul\":4346:4352   */\n      dup5\n        /* \"#utility.yul\":4341:4344   */\n      dup3\n        /* \"#utility.yul\":4336:4339   */\n      dup6\n        /* \"#utility.yul\":4299:4353   */\n      tag_75\n      jump\t// in\n    tag_143:\n        /* \"#utility.yul\":4018:4359   */\n      pop\n        /* \"#utility.yul\":3934:4359   */\n      swap4\n      swap3\n      pop\n      pop\n      pop\n      jump\t// out\n        /* \"#utility.yul\":4379:4719   */\n    tag_77:\n        /* \"#utility.yul\":4435:4440   */\n      0x00\n        /* \"#utility.yul\":4484:4487   */\n      dup3\n        /* \"#utility.yul\":4477:4481   */\n      0x1f\n        /* \"#utility.yul\":4469:4475   */\n      dup4\n        /* \"#utility.yul\":4465:4482   */\n      add\n        /* \"#utility.yul\":4461:4488   */\n      slt\n        /* \"#utility.yul\":4451:4573   */\n      tag_145\n      jumpi\n        /* \"#utility.yul\":4492:4571   */\n      tag_146\n      tag_69\n      jump\t// in\n    tag_146:\n        /* \"#utility.yul\":4451:4573   */\n    tag_145:\n        /* \"#utility.yul\":4609:4615   */\n      dup2\n        /* \"#utility.yul\":4596:4616   */\n      calldataload\n        /* \"#utility.yul\":4634:4713   */\n      tag_147\n        /* \"#utility.yul\":4709:4712   */\n      dup5\n        /* \"#utility.yul\":4701:4707   */\n      dup3\n        /* \"#utility.yul\":4694:4698   */\n      0x20\n        /* \"#utility.yul\":4686:4692   */\n      dup7\n        /* \"#utility.yul\":4682:4699   */\n      add\n        /* \"#utility.yul\":4634:4713   */\n      tag_76\n      jump\t// in\n    tag_147:\n        /* \"#utility.yul\":4625:4713   */\n      swap2\n      pop\n        /* \"#utility.yul\":4441:4719   */\n      pop\n        /* \"#utility.yul\":4379:4719   */\n      swap3\n      swap2\n      pop\n      pop\n      jump\t// out\n        /* \"#utility.yul\":4725:5234   */\n    tag_20:\n        /* \"#utility.yul\":4794:4800   */\n      0x00\n        /* \"#utility.yul\":4843:4845   */\n      0x20\n        /* \"#utility.yul\":4831:4840   */\n      dup3\n        /* \"#utility.yul\":4822:4829   */\n      dup5\n        /* \"#utility.yul\":4818:4841   */\n      sub\n        /* \"#utility.yul\":4814:4846   */\n      slt\n        /* \"#utility.yul\":4811:4930   */\n      iszero\n      tag_149\n      jumpi\n        /* \"#utility.yul\":4849:4928   */\n      tag_150\n      tag_63\n      jump\t// in\n    tag_150:\n        /* \"#utility.yul\":4811:4930   */\n    tag_149:\n        /* \"#utility.yul\":4997:4998   */\n      0x00\n        /* \"#utility.yul\":4986:4995   */\n      dup3\n        /* \"#utility.yul\":4982:4999   */\n      add\n        /* \"#utility.yul\":4969:5000   */\n      calldataload\n        /* \"#utility.yul\":5027:5045   */\n      0xffffffffffffffff\n        /* \"#utility.yul\":5019:5025   */\n      dup2\n        /* \"#utility.yul\":5016:5046   */\n      gt\n        /* \"#utility.yul\":5013:5130   */\n      iszero\n      tag_151\n      jumpi\n        /* \"#utility.yul\":5049:5128   */\n      tag_152\n      tag_64\n      jump\t// in\n    tag_152:\n        /* \"#utility.yul\":5013:5130   */\n    tag_151:\n        /* \"#utility.yul\":5154:5217   */\n      tag_153\n        /* \"#utility.yul\":5209:5216   */\n      dup5\n        /* \"#utility.yul\":5200:5206   */\n      dup3\n        /* \"#utility.yul\":5189:5198   */\n      dup6\n        /* \"#utility.yul\":5185:5207   */\n      add\n        /* \"#utility.yul\":5154:5217   */\n      tag_77\n      jump\t// in\n    tag_153:\n        /* \"#utility.yul\":5144:5217   */\n      swap2\n      pop\n        /* \"#utility.yul\":4940:5227   */\n      pop\n        /* \"#utility.yul\":4725:5234   */\n      swap3\n      swap2\n      pop\n      pop\n      jump\t// out\n        /* \"#utility.yul\":5240:5859   */\n    tag_24:\n        /* \"#utility.yul\":5317:5323   */\n      0x00\n        /* \"#utility.yul\":5325:5331   */\n      dup1\n        /* \"#utility.yul\":5333:5339   */\n      0x00\n        /* \"#utility.yul\":5382:5384   */\n      0x60\n        /* \"#utility.yul\":5370:5379   */\n      dup5\n        /* \"#utility.yul\":5361:5368   */\n      dup7\n        /* \"#utility.yul\":5357:5380   */\n      sub\n        /* \"#utility.yul\":5353:5385   */\n      slt\n        /* \"#utility.yul\":5350:5469   */\n      iszero\n      tag_155\n      jumpi\n        /* \"#utility.yul\":5388:5467   */\n      tag_156\n      tag_63\n      jump\t// in\n    tag_156:\n        /* \"#utility.yul\":5350:5469   */\n    tag_155:\n        /* \"#utility.yul\":5508:5509   */\n      0x00\n        /* \"#utility.yul\":5533:5586   */\n      tag_157\n        /* \"#utility.yul\":5578:5585   */\n      dup7\n        /* \"#utility.yul\":5569:5575   */\n      dup3\n        /* \"#utility.yul\":5558:5567   */\n      dup8\n        /* \"#utility.yul\":5554:5576   */\n      add\n        /* \"#utility.yul\":5533:5586   */\n      tag_67\n      jump\t// in\n    tag_157:\n        /* \"#utility.yul\":5523:5586   */\n      swap4\n      pop\n        /* \"#utility.yul\":5479:5596   */\n      pop\n        /* \"#utility.yul\":5635:5637   */\n      0x20\n        /* \"#utility.yul\":5661:5714   */\n      tag_158\n        /* \"#utility.yul\":5706:5713   */\n      dup7\n        /* \"#utility.yul\":5697:5703   */\n      dup3\n        /* \"#utility.yul\":5686:5695   */\n      dup8\n        /* \"#utility.yul\":5682:5704   */\n      add\n        /* \"#utility.yul\":5661:5714   */\n      tag_67\n      jump\t// in\n    tag_158:\n        /* \"#utility.yul\":5651:5714   */\n      swap3\n      pop\n        /* \"#utility.yul\":5606:5724   */\n      pop\n        /* \"#utility.yul\":5763:5765   */\n      0x40\n        /* \"#utility.yul\":5789:5842   */\n      tag_159\n        /* \"#utility.yul\":5834:5841   */\n      dup7\n        /* \"#utility.yul\":5825:5831   */\n      dup3\n        /* \"#utility.yul\":5814:5823   */\n      dup8\n        /* \"#utility.yul\":5810:5832   */\n      add\n        /* \"#utility.yul\":5789:5842   */\n      tag_67\n      jump\t// in\n    tag_159:\n        /* \"#utility.yul\":5779:5842   */\n      swap2\n      pop\n        /* \"#utility.yul\":5734:5852   */\n      pop\n        /* \"#utility.yul\":5240:5859   */\n      swap3\n      pop\n      swap3\n      pop\n      swap3\n      jump\t// out\n        /* \"#utility.yul\":5865:6045   */\n    tag_78:\n        /* \"#utility.yul\":5913:5990   */\n      0x4e487b7100000000000000000000000000000000000000000000000000000000\n        /* \"#utility.yul\":5910:5911   */\n      0x00\n        /* \"#utility.yul\":5903:5991   */\n      mstore\n        /* \"#utility.yul\":6010:6014   */\n      0x22\n        /* \"#utility.yul\":6007:6008   */\n      0x04\n        /* \"#utility.yul\":6000:6015   */\n      mstore\n        /* \"#utility.yul\":6034:6038   */\n      0x24\n        /* \"#utility.yul\":6031:6032   */\n      0x00\n        /* \"#utility.yul\":6024:6039   */\n      revert\n        /* \"#utility.yul\":6051:6371   */\n    tag_32:\n        /* \"#utility.yul\":6095:6101   */\n      0x00\n        /* \"#utility.yul\":6132:6133   */\n      0x02\n        /* \"#utility.yul\":6126:6130   */\n      dup3\n        /* \"#utility.yul\":6122:6134   */\n      div\n        /* \"#utility.yul\":6112:6134   */\n      swap1\n      pop\n        /* \"#utility.yul\":6179:6180   */\n      0x01\n        /* \"#utility.yul\":6173:6177   */\n      dup3\n        /* \"#utility.yul\":6169:6181   */\n      and\n        /* \"#utility.yul\":6200:6218   */\n      dup1\n        /* \"#utility.yul\":6190:6271   */\n      tag_162\n      jumpi\n        /* \"#utility.yul\":6256:6260   */\n      0x7f\n        /* \"#utility.yul\":6248:6254   */\n      dup3\n        /* \"#utility.yul\":6244:6261   */\n      and\n        /* \"#utility.yul\":6234:6261   */\n      swap2\n      pop\n        /* \"#utility.yul\":6190:6271   */\n    tag_162:\n        /* \"#utility.yul\":6318:6320   */\n      0x20\n        /* \"#utility.yul\":6310:6316   */\n      dup3\n        /* \"#utility.yul\":6307:6321   */\n      lt\n        /* \"#utility.yul\":6287:6305   */\n      dup2\n        /* \"#utility.yul\":6284:6322   */\n      sub\n        /* \"#utility.yul\":6281:6365   */\n      tag_163\n      jumpi\n        /* \"#utility.yul\":6337:6355   */\n      tag_164\n      tag_78\n      jump\t// in\n    tag_164:\n        /* \"#utility.yul\":6281:6365   */\n    tag_163:\n        /* \"#utility.yul\":6102:6371   */\n      pop\n        /* \"#utility.yul\":6051:6371   */\n      swap2\n      swap1\n      pop\n      jump\t// out\n        /* \"#utility.yul\":6377:6557   */\n    tag_40:\n        /* \"#utility.yul\":6425:6502   */\n      0x4e487b7100000000000000000000000000000000000000000000000000000000\n        /* \"#utility.yul\":6422:6423   */\n      0x00\n        /* \"#utility.yul\":6415:6503   */\n      mstore\n        /* \"#utility.yul\":6522:6526   */\n      0x32\n        /* \"#utility.yul\":6519:6520   */\n      0x04\n        /* \"#utility.yul\":6512:6527   */\n      mstore\n        /* \"#utility.yul\":6546:6550   */\n      0x24\n        /* \"#utility.yul\":6543:6544   */\n      0x00\n        /* \"#utility.yul\":6536:6551   */\n      revert\n        /* \"#utility.yul\":6563:6704   */\n    tag_79:\n        /* \"#utility.yul\":6612:6616   */\n      0x00\n        /* \"#utility.yul\":6635:6638   */\n      dup2\n        /* \"#utility.yul\":6627:6638   */\n      swap1\n      pop\n        /* \"#utility.yul\":6658:6661   */\n      dup2\n        /* \"#utility.yul\":6655:6656   */\n      0x00\n        /* \"#utility.yul\":6648:6662   */\n      mstore\n        /* \"#utility.yul\":6692:6696   */\n      0x20\n        /* \"#utility.yul\":6689:6690   */\n      0x00\n        /* \"#utility.yul\":6679:6697   */\n      keccak256\n        /* \"#utility.yul\":6671:6697   */\n      swap1\n      pop\n        /* \"#utility.yul\":6563:6704   */\n      swap2\n      swap1\n      pop\n      jump\t// out\n        /* \"#utility.yul\":6710:6803   */\n    tag_80:\n        /* \"#utility.yul\":6747:6753   */\n      0x00\n        /* \"#utility.yul\":6794:6796   */\n      0x20\n        /* \"#utility.yul\":6789:6791   */\n      0x1f\n        /* \"#utility.yul\":6782:6787   */\n      dup4\n        /* \"#utility.yul\":6778:6792   */\n      add\n        /* \"#utility.yul\":6774:6797   */\n      div\n        /* \"#utility.yul\":6764:6797   */\n      swap1\n      pop\n        /* \"#utility.yul\":6710:6803   */\n      swap2\n      swap1\n      pop\n      jump\t// out\n        /* \"#utility.yul\":6809:6916   */\n    tag_81:\n        /* \"#utility.yul\":6853:6861   */\n      0x00\n        /* \"#utility.yul\":6903:6908   */\n      dup3\n        /* \"#utility.yul\":6897:6901   */\n      dup3\n        /* \"#utility.yul\":6893:6909   */\n      shl\n        /* \"#utility.yul\":6872:6909   */\n      swap1\n      pop\n        /* \"#utility.yul\":6809:6916   */\n      swap3\n      swap2\n      pop\n      pop\n      jump\t// out\n        /* \"#utility.yul\":6922:7315   */\n    tag_82:\n        /* \"#utility.yul\":6991:6997   */\n      0x00\n        /* \"#utility.yul\":7041:7042   */\n      0x08\n        /* \"#utility.yul\":7029:7039   */\n      dup4\n        /* \"#utility.yul\":7025:7043   */\n      mul\n        /* \"#utility.yul\":7064:7161   */\n      tag_170\n        /* \"#utility.yul\":7094:7160   */\n      0xffffffffffffffffffffffffffffffffffffffffffffffffffffffffffffffff\n        /* \"#utility.yul\":7083:7092   */\n      dup3\n        /* \"#utility.yul\":7064:7161   */\n      tag_81\n      jump\t// in\n    tag_170:\n        /* \"#utility.yul\":7182:7221   */\n      tag_171\n        /* \"#utility.yul\":7212:7220   */\n      dup7\n        /* \"#utility.yul\":7201:7210   */\n      dup4\n        /* \"#utility.yul\":7182:7221   */\n      tag_81\n      jump\t// in\n    tag_171:\n        /* \"#utility.yul\":7170:7221   */\n      swap6\n      pop\n        /* \"#utility.yul\":7254:7258   */\n      dup1\n        /* \"#utility.yul\":7250:7259   */\n      not\n        /* \"#utility.yul\":7243:7248   */\n      dup5\n        /* \"#utility.yul\":7239:7260   */\n      and\n        /* \"#utility.yul\":7230:7260   */\n      swap4\n      pop\n        /* \"#utility.yul\":7303:7307   */\n      dup1\n        /* \"#utility.yul\":7293:7301   */\n      dup7\n        /* \"#utility.yul\":7289:7308   */\n      and\n        /* \"#utility.yul\":7282:7287   */\n      dup5\n        /* \"#utility.yul\":7279:7309   */\n      or\n        /* \"#utility.yul\":7269:7309   */\n      swap3\n      pop\n        /* \"#utility.yul\":6998:7315   */\n      pop\n      pop\n        /* \"#utility.yul\":6922:7315   */\n      swap4\n      swap3\n      pop\n      pop\n      pop\n      jump\t// out\n        /* \"#utility.yul\":7321:7381   */\n    tag_83:\n        /* \"#utility.yul\":7349:7352   */\n      0x00\n        /* \"#utility.yul\":7370:7375   */\n      dup2\n        /* \"#utility.yul\":7363:7375   */\n      swap1\n      pop\n        /* \"#utility.yul\":7321:7381   */\n      swap2\n      swap1\n      pop\n      jump\t// out\n        /* \"#utility.yul\":7387:7529   */\n    tag_84:\n        /* \"#utility.yul\":7437:7446   */\n      0x00\n        /* \"#utility.yul\":7470:7523   */\n      tag_174\n        /* \"#utility.yul\":7488:7522   */\n      tag_175\n        /* \"#utility.yul\":7497:7521   */\n      tag_176\n        /* \"#utility.yul\":7515:7520   */\n      dup5\n        /* \"#utility.yul\":7497:7521   */\n      tag_65\n      jump\t// in\n    tag_176:\n        /* \"#utility.yul\":7488:7522   */\n      tag_83\n      jump\t// in\n    tag_175:\n        /* \"#utility.yul\":7470:7523   */\n      tag_65\n      jump\t// in\n    tag_174:\n        /* \"#utility.yul\":7457:7523   */\n      swap1\n      pop\n        /* \"#utility.yul\":7387:7529   */\n      swap2\n      swap1\n      pop\n      jump\t// out\n        /* \"#utility.yul\":7535:7610   */\n    tag_85:\n        /* \"#utility.yul\":7578:7581   */\n      0x00\n        /* \"#utility.yul\":7599:7604   */\n      dup2\n        /* \"#utility.yul\":7592:7604   */\n      swap1\n      pop\n        /* \"#utility.yul\":7535:7610   */\n      swap2\n      swap1\n      pop\n      jump\t// out\n        /* \"#utility.yul\":7616:7885   */\n    tag_86:\n        /* \"#utility.yul\":7726:7765   */\n      tag_179\n        /* \"#utility.yul\":7757:7764   */\n      dup4\n        /* \"#utility.yul\":7726:7765   */\n      tag_84\n      jump\t// in\n    tag_179:\n        /* \"#utility.yul\":7787:7878   */\n      tag_180\n        /* \"#utility.yul\":7836:7877   */\n      tag_181\n        /* \"#utility.yul\":7860:7876   */\n      dup3\n        /* \"#utility.yul\":7836:7877   */\n      tag_85\n      jump\t// in\n    tag_181:\n        /* \"#utility.yul\":7828:7834   */\n      dup5\n        /* \"#utility.yul\":7821:7825   */\n      dup5\n        /* \"#utility.yul\":7815:7826   */\n      sload\n        /* \"#utility.yul\":7787:7878   */\n      tag_82\n      jump\t// in\n    tag_180:\n        /* \"#utility.yul\":7781:7785   */\n      dup3\n        /* \"#utility.yul\":7774:7879   */\n      sstore\n        /* \"#utility.yul\":7692:7885   */\n      pop\n        /* \"#utility.yul\":7616:7885   */\n      pop\n      pop\n      pop\n      jump\t// out\n        /* \"#utility.yul\":7891:7964   */\n    tag_87:\n        /* \"#utility.yul\":7936:7939   */\n      0x00\n        /* \"#utility.yul\":7891:7964   */\n      swap1\n      jump\t// out\n        /* \"#utility.yul\":7970:8159   */\n    tag_88:\n        /* \"#utility.yul\":8047:8079   */\n      tag_184\n      tag_87\n      jump\t// in\n    tag_184:\n        /* \"#utility.yul\":8088:8153   */\n      tag_185\n        /* \"#utility.yul\":8146:8152   */\n      dup2\n        /* \"#utility.yul\":8138:8144   */\n      dup5\n        /* \"#utility.yul\":8132:8136   */\n      dup5\n        /* \"#utility.yul\":8088:8153   */\n      tag_86\n      jump\t// in\n    tag_185:\n        /* \"#utility.yul\":8023:8159   */\n      pop\n        /* \"#utility.yul\":7970:8159   */\n      pop\n      pop\n      jump\t// out\n        /* \"#utility.yul\":8165:8351   */\n    tag_89:\n        /* \"#utility.yul\":8225:8345   */\n    tag_187:\n        /* \"#utility.yul\":8242:8245   */\n      dup2\n        /* \"#utility.yul\":8235:8240   */\n      dup2\n        /* \"#utility.yul\":8232:8246   */\n      lt\n        /* \"#utility.yul\":8225:8345   */\n      iszero\n      tag_189\n      jumpi\n        /* \"#utility.yul\":8296:8335   */\n      tag_190\n        /* \"#utility.yul\":8333:8334   */\n      0x00\n        /* \"#utility.yul\":8326:8331   */\n      dup3\n        /* \"#utility.yul\":8296:8335   */\n      tag_88\n      jump\t// in\n    tag_190:\n        /* \"#utility.yul\":8269:8270   */\n      0x01\n        /* \"#utility.yul\":8262:8267   */\n      dup2\n        /* \"#utility.yul\":8258:8271   */\n      add\n        /* \"#utility.yul\":8249:8271   */\n      swap1\n      pop\n        /* \"#utility.yul\":8225:8345   */\n      jump(tag_187)\n    tag_189:\n        /* \"#utility.yul\":8165:8351   */\n      pop\n      pop\n      jump\t// out\n        /* \"#utility.yul\":8357:8900   */\n    tag_90:\n        /* \"#utility.yul\":8458:8460   */\n      0x1f\n        /* \"#utility.yul\":8453:8456   */\n      dup3\n        /* \"#utility.yul\":8450:8461   */\n      gt\n        /* \"#utility.yul\":8447:8893   */\n      iszero\n      tag_192\n      jumpi\n        /* \"#utility.yul\":8492:8530   */\n      tag_193\n        /* \"#utility.yul\":8524:8529   */\n      dup2\n        /* \"#utility.yul\":8492:8530   */\n      tag_79\n      jump\t// in\n    tag_193:\n        /* \"#utility.yul\":8576:8605   */\n      tag_194\n        /* \"#utility.yul\":8594:8604   */\n      dup5\n        /* \"#utility.yul\":8576:8605   */\n      tag_80\n      jump\t// in\n    tag_194:\n        /* \"#utility.yul\":8566:8574   */\n      dup2\n        /* \"#utility.yul\":8562:8606   */\n      add\n        /* \"#utility.yul\":8759:8761   */\n      0x20\n        /* \"#utility.yul\":8747:8757   */\n      dup6\n        /* \"#utility.yul\":8744:8762   */\n      lt\n        /* \"#utility.yul\":8741:8790   */\n      iszero\n      tag_195\n      jumpi\n        /* \"#utility.yul\":8780:8788   */\n      dup2\n        /* \"#utility.yul\":8765:8788   */\n      swap1\n      pop\n        /* \"#utility.yul\":8741:8790   */\n    tag_195:\n        /* \"#utility.yul\":8803:8883   */\n      tag_196\n        /* \"#utility.yul\":8859:8881   */\n      tag_197\n        /* \"#utility.yul\":8877:8880   */\n      dup6\n        /* \"#utility.yul\":8859:8881   */\n      tag_80\n      jump\t// in\n    tag_197:\n        /* \"#utility.yul\":8849:8857   */\n      dup4\n        /* \"#utility.yul\":8845:8882   */\n      add\n        /* \"#utility.yul\":8832:8843   */\n      dup3\n        /* \"#utility.yul\":8803:8883   */\n      tag_89\n      jump\t// in\n    tag_196:\n        /* \"#utility.yul\":8462:8893   */\n      pop\n      pop\n        /* \"#utility.yul\":8447:8893   */\n    tag_192:\n        /* \"#utility.yul\":8357:8900   */\n      pop\n      pop\n      pop\n      jump\t// out\n        /* \"#utility.yul\":8906:9023   */\n    tag_91:\n        /* \"#utility.yul\":8960:8968   */\n      0x00\n        /* \"#utility.yul\":9010:9015   */\n      dup3\n        /* \"#utility.yul\":9004:9008   */\n      dup3\n        /* \"#utility.yul\":9000:9016   */\n      shr\n        /* \"#utility.yul\":8979:9016   */\n      swap1\n      pop\n        /* \"#utility.yul\":8906:9023   */\n      swap3\n      swap2\n      pop\n      pop\n      jump\t// out\n        /* \"#utility.yul\":9029:9198   */\n    tag_92:\n        /* \"#utility.yul\":9073:9079   */\n      0x00\n        /* \"#utility.yul\":9106:9157   */\n      tag_200\n        /* \"#utility.yul\":9154:9155   */\n      0x00\n        /* \"#utility.yul\":9150:9156   */\n      not\n        /* \"#utility.yul\":9142:9147   */\n      dup5\n        /* \"#utility.yul\":9139:9140   */\n      0x08\n        /* \"#utility.yul\":9135:9148   */\n      mul\n        /* \"#utility.yul\":9106:9157   */\n      tag_91\n      jump\t// in\n    tag_200:\n        /* \"#utility.yul\":9102:9158   */\n      not\n        /* \"#utility.yul\":9187:9191   */\n      dup1\n        /* \"#utility.yul\":9181:9185   */\n      dup4\n        /* \"#utility.yul\":9177:9192   */\n      and\n        /* \"#utility.yul\":9167:9192   */\n      swap2\n      pop\n        /* \"#utility.yul\":9080:9198   */\n      pop\n        /* \"#utility.yul\":9029:9198   */\n      swap3\n      swap2\n      pop\n      pop\n      jump\t// out\n        /* \"#utility.yul\":9203:9498   */\n    tag_93:\n        /* \"#utility.yul\":9279:9283   */\n      0x00\n        /* \"#utility.yul\":9425:9454   */\n      tag_202\n        /* \"#utility.yul\":9450:9453   */\n      dup4\n        /* \"#utility.yul\":9444:9448   */\n      dup4\n        /* \"#utility.yul\":9425:9454   */\n      tag_92\n      jump\t// in\n    tag_202:\n        /* \"#utility.yul\":9417:9454   */\n      swap2\n      pop\n        /* \"#utility.yul\":9487:9490   */\n      dup3\n        /* \"#utility.yul\":9484:9485   */\n      0x02\n        /* \"#utility.yul\":9480:9491   */\n      mul\n        /* \"#utility.yul\":9474:9478   */\n      dup3\n        /* \"#utility.yul\":9471:9492   */\n      or\n        /* \"#utility.yul\":9463:9492   */\n      swap1\n      pop\n        /* \"#utility.yul\":9203:9498   */\n      swap3\n      swap2\n      pop\n      pop\n      jump\t// out\n        /* \"#utility.yul\":9503:10898   */\n    tag_44:\n        /* \"#utility.yul\":9620:9657   */\n      tag_204\n        /* \"#utility.yul\":9653:9656   */\n      dup3\n        /* \"#utility.yul\":9620:9657   */\n      tag_57\n      jump\t// in\n    tag_204:\n        /* \"#utility.yul\":9722:9740   */\n      0xffffffffffffffff\n        /* \"#utility.yul\":9714:9720   */\n      dup2\n        /* \"#utility.yul\":9711:9741   */\n      gt\n        /* \"#utility.yul\":9708:9764   */\n      iszero\n      tag_205\n      jumpi\n        /* \"#utility.yul\":9744:9762   */\n      tag_206\n      tag_71\n      jump\t// in\n    tag_206:\n        /* \"#utility.yul\":9708:9764   */\n    tag_205:\n        /* \"#utility.yul\":9788:9826   */\n      tag_207\n        /* \"#utility.yul\":9820:9824   */\n      dup3\n        /* \"#utility.yul\":9814:9825   */\n      sload\n        /* \"#utility.yul\":9788:9826   */\n      tag_32\n      jump\t// in\n    tag_207:\n        /* \"#utility.yul\":9873:9940   */\n      tag_208\n        /* \"#utility.yul\":9933:9939   */\n      dup3\n        /* \"#utility.yul\":9925:9931   */\n      dup3\n        /* \"#utility.yul\":9919:9923   */\n      dup6\n        /* \"#utility.yul\":9873:9940   */\n      tag_90\n      jump\t// in\n    tag_208:\n        /* \"#utility.yul\":9967:9968   */\n      0x00\n        /* \"#utility.yul\":9991:9995   */\n      0x20\n        /* \"#utility.yul\":9978:9995   */\n      swap1\n      pop\n        /* \"#utility.yul\":10023:10025   */\n      0x1f\n        /* \"#utility.yul\":10015:10021   */\n      dup4\n        /* \"#utility.yul\":10012:10026   */\n      gt\n        /* \"#utility.yul\":10040:10041   */\n      0x01\n        /* \"#utility.yul\":10035:10653   */\n      dup2\n      eq\n      tag_210\n      jumpi\n        /* \"#utility.yul\":10697:10698   */\n      0x00\n        /* \"#utility.yul\":10714:10720   */\n      dup5\n        /* \"#utility.yul\":10711:10788   */\n      iszero\n      tag_211\n      jumpi\n        /* \"#utility.yul\":10763:10772   */\n      dup3\n        /* \"#utility.yul\":10758:10761   */\n      dup8\n        /* \"#utility.yul\":10754:10773   */\n      add\n        /* \"#utility.yul\":10748:10774   */\n      mload\n        /* \"#utility.yul\":10739:10774   */\n      swap1\n      pop\n        /* \"#utility.yul\":10711:10788   */\n    tag_211:\n        /* \"#utility.yul\":10814:10881   */\n      tag_212\n        /* \"#utility.yul\":10874:10880   */\n      dup6\n        /* \"#utility.yul\":10867:10872   */\n      dup3\n        /* \"#utility.yul\":10814:10881   */\n      tag_93\n      jump\t// in\n    tag_212:\n        /* \"#utility.yul\":10808:10812   */\n      dup7\n        /* \"#utility.yul\":10801:10882   */\n      sstore\n        /* \"#utility.yul\":10670:10892   */\n      pop\n        /* \"#utility.yul\":10005:10892   */\n      jump(tag_209)\n        /* \"#utility.yul\":10035:10653   */\n    tag_210:\n        /* \"#utility.yul\":10087:10091   */\n      0x1f\n        /* \"#utility.yul\":10083:10092   */\n      not\n        /* \"#utility.yul\":10075:10081   */\n      dup5\n        /* \"#utility.yul\":10071:10093   */\n      and\n        /* \"#utility.yul\":10121:10158   */\n      tag_213\n        /* \"#utility.yul\":10153:10157   */\n      dup7\n        /* \"#utility.yul\":10121:10158   */\n      tag_79\n      jump\t// in\n    tag_213:\n        /* \"#utility.yul\":10180:10181   */\n      0x00\n        /* \"#utility.yul\":10194:10402   */\n    tag_214:\n        /* \"#utility.yul\":10208:10215   */\n      dup3\n        /* \"#utility.yul\":10205:10206   */\n      dup2\n        /* \"#utility.yul\":10202:10216   */\n      lt\n        /* \"#utility.yul\":10194:10402   */\n      iszero\n      tag_216\n      jumpi\n        /* \"#utility.yul\":10287:10296   */\n      dup5\n        /* \"#utility.yul\":10282:10285   */\n      dup10\n        /* \"#utility.yul\":10278:10297   */\n      add\n        /* \"#utility.yul\":10272:10298   */\n      mload\n        /* \"#utility.yul\":10264:10270   */\n      dup3\n        /* \"#utility.yul\":10257:10299   */\n      sstore\n        /* \"#utility.yul\":10338:10339   */\n      0x01\n        /* \"#utility.yul\":10330:10336   */\n      dup3\n        /* \"#utility.yul\":10326:10340   */\n      add\n        /* \"#utility.yul\":10316:10340   */\n      swap2\n      pop\n        /* \"#utility.yul\":10385:10387   */\n      0x20\n        /* \"#utility.yul\":10374:10383   */\n      dup6\n        /* \"#utility.yul\":10370:10388   */\n      add\n        /* \"#utility.yul\":10357:10388   */\n      swap5\n      pop\n        /* \"#utility.yul\":10231:10235   */\n      0x20\n        /* \"#utility.yul\":10228:10229   */\n      dup2\n        /* \"#utility.yul\":10224:10236   */\n      add\n        /* \"#utility.yul\":10219:10236   */\n      swap1\n      pop\n        /* \"#utility.yul\":10194:10402   */\n      jump(tag_214)\n    tag_216:\n        /* \"#utility.yul\":10430:10436   */\n      dup7\n        /* \"#utility.yul\":10421:10428   */\n      dup4\n        /* \"#utility.yul\":10418:10437   */\n      lt\n        /* \"#utility.yul\":10415:10594   */\n      iszero\n      tag_217\n      jumpi\n        /* \"#utility.yul\":10488:10497   */\n      dup5\n        /* \"#utility.yul\":10483:10486   */\n      dup10\n        /* \"#utility.yul\":10479:10498   */\n      add\n        /* \"#utility.yul\":10473:10499   */\n      mload\n        /* \"#utility.yul\":10531:10579   */\n      tag_218\n        /* \"#utility.yul\":10573:10577   */\n      0x1f\n        /* \"#utility.yul\":10565:10571   */\n      dup10\n        /* \"#utility.yul\":10561:10578   */\n      and\n        /* \"#utility.yul\":10550:10559   */\n      dup3\n        /* \"#utility.yul\":10531:10579   */\n      tag_92\n      jump\t// in\n    tag_218:\n        /* \"#utility.yul\":10523:10529   */\n      dup4\n        /* \"#utility.yul\":10516:10580   */\n      sstore\n        /* \"#utility.yul\":10438:10594   */\n      pop\n        /* \"#utility.yul\":10415:10594   */\n    tag_217:\n        /* \"#utility.yul\":10640:10641   */\n      0x01\n        /* \"#utility.yul\":10636:10637   */\n      0x02\n        /* \"#utility.yul\":10628:10634   */\n      dup9\n        /* \"#utility.yul\":10624:10638   */\n      mul\n        /* \"#utility.yul\":10620:10642   */\n      add\n        /* \"#utility.yul\":10614:10618   */\n      dup9\n        /* \"#utility.yul\":10607:10643   */\n      sstore\n        /* \"#utility.yul\":10042:10653   */\n      pop\n      pop\n      pop\n        /* \"#utility.yul\":10005:10892   */\n    tag_209:\n      pop\n        /* \"#utility.yul\":9595:10898   */\n      pop\n      pop\n      pop\n        /* \"#utility.yul\":9503:10898   */\n      pop\n      pop\n      jump\t// out\n\n    auxdata: 0xa26469706673582212207d2e7bf629fb6b1fe543b5e6ebe68ff8e6e725a96f42b9ac3ff757cb712fe26764736f6c634300081a0033\n}\n",
				"bytecode": {
					"linkReferences": {},
					"object": "6080604052348015600e575f80fd5b506108c58061001c5f395ff3fe608060405234801561000f575f80fd5b5060043610610055575f3560e01c806317d7de7c146100595780634a7b26ae14610077578063adcfb4fc146100a7578063b3b3d608146100c3578063d39fa233146100df575b5f80fd5b61006161010f565b60405161006e919061031f565b60405180910390f35b610091600480360381019061008c9190610383565b6101da565b60405161009e91906103bd565b60405180910390f35b6100c160048036038101906100bc9190610502565b6101f7565b005b6100dd60048036038101906100d89190610549565b610245565b005b6100f960048036038101906100f49190610383565b610297565b60405161010691906103bd565b60405180910390f35b606060035f3373ffffffffffffffffffffffffffffffffffffffff1673ffffffffffffffffffffffffffffffffffffffff1681526020019081526020015f208054610159906105c6565b80601f0160208091040260200160405190810160405280929190818152602001828054610185906105c6565b80156101d05780601f106101a7576101008083540402835291602001916101d0565b820191905f5260205f20905b8154815290600101906020018083116101b357829003601f168201915b5050505050905090565b5f8082600381106101ee576101ed6105f6565b5b01549050919050565b8060035f3373ffffffffffffffffffffffffffffffffffffffff1673ffffffffffffffffffffffffffffffffffffffff1681526020019081526020015f20908161024191906107c0565b5050565b825f8060038110610259576102586105f6565b5b0181905550815f600160038110610273576102726105f6565b5b0181905550805f60026003811061028d5761028c6105f6565b5b0181905550505050565b5f81600381106102a5575f80fd5b015f915090505481565b5f81519050919050565b5f82825260208201905092915050565b8281835e5f83830152505050565b5f601f19601f8301169050919050565b5f6102f1826102af565b6102fb81856102b9565b935061030b8185602086016102c9565b610314816102d7565b840191505092915050565b5f6020820190508181035f83015261033781846102e7565b905092915050565b5f604051905090565b5f80fd5b5f80fd5b5f819050919050565b61036281610350565b811461036c575f80fd5b50565b5f8135905061037d81610359565b92915050565b5f6020828403121561039857610397610348565b5b5f6103a58482850161036f565b91505092915050565b6103b781610350565b82525050565b5f6020820190506103d05f8301846103ae565b92915050565b5f80fd5b5f80fd5b7f4e487b71000000000000000000000000000000000000000000000000000000005f52604160045260245ffd5b610414826102d7565b810181811067ffffffffffffffff82111715610433576104326103de565b5b80604052505050565b5f61044561033f565b9050610451828261040b565b919050565b5f67ffffffffffffffff8211156104705761046f6103de565b5b610479826102d7565b9050602081019050919050565b828183375f83830152505050565b5f6104a66104a184610456565b61043c565b9050828152602081018484840111156104c2576104c16103da565b5b6104cd848285610486565b509392505050565b5f82601f8301126104e9576104e86103d6565b5b81356104f9848260208601610494565b91505092915050565b5f6020828403121561051757610516610348565b5b5f82013567ffffffffffffffff8111156105345761053361034c565b5b610540848285016104d5565b91505092915050565b5f805f606084860312156105605761055f610348565b5b5f61056d8682870161036f565b935050602061057e8682870161036f565b925050604061058f8682870161036f565b9150509250925092565b7f4e487b71000000000000000000000000000000000000000000000000000000005f52602260045260245ffd5b5f60028204905060018216806105dd57607f821691505b6020821081036105f0576105ef610599565b5b50919050565b7f4e487b71000000000000000000000000000000000000000000000000000000005f52603260045260245ffd5b5f819050815f5260205f209050919050565b5f6020601f8301049050919050565b5f82821b905092915050565b5f6008830261067f7fffffffffffffffffffffffffffffffffffffffffffffffffffffffffffffffff82610644565b6106898683610644565b95508019841693508086168417925050509392505050565b5f819050919050565b5f6106c46106bf6106ba84610350565b6106a1565b610350565b9050919050565b5f819050919050565b6106dd836106aa565b6106f16106e9826106cb565b848454610650565b825550505050565b5f90565b6107056106f9565b6107108184846106d4565b505050565b5b81811015610733576107285f826106fd565b600181019050610716565b5050565b601f8211156107785761074981610623565b61075284610635565b81016020851015610761578190505b61077561076d85610635565b830182610715565b50505b505050565b5f82821c905092915050565b5f6107985f198460080261077d565b1980831691505092915050565b5f6107b08383610789565b9150826002028217905092915050565b6107c9826102af565b67ffffffffffffffff8111156107e2576107e16103de565b5b6107ec82546105c6565b6107f7828285610737565b5f60209050601f831160018114610828575f8415610816578287015190505b61082085826107a5565b865550610887565b601f19841661083686610623565b5f5b8281101561085d57848901518255600182019150602085019450602081019050610838565b8683101561087a5784890151610876601f891682610789565b8355505b6001600288020188555050505b50505050505056fea26469706673582212207d2e7bf629fb6b1fe543b5e6ebe68ff8e6e725a96f42b9ac3ff757cb712fe26764736f6c634300081a0033",
					"opcodes": "PUSH1 0x80 PUSH1 0x40 MSTORE CALLVALUE DUP1 ISZERO PUSH1 0xE JUMPI PUSH0 DUP1 REVERT JUMPDEST POP PUSH2 0x8C5 DUP1 PUSH2 0x1C PUSH0 CODECOPY PUSH0 RETURN INVALID PUSH1 0x80 PUSH1 0x40 MSTORE CALLVALUE DUP1 ISZERO PUSH2 0xF JUMPI PUSH0 DUP1 REVERT JUMPDEST POP PUSH1 0x4 CALLDATASIZE LT PUSH2 0x55 JUMPI PUSH0 CALLDATALOAD PUSH1 0xE0 SHR DUP1 PUSH4 0x17D7DE7C EQ PUSH2 0x59 JUMPI DUP1 PUSH4 0x4A7B26AE EQ PUSH2 0x77 JUMPI DUP1 PUSH4 0xADCFB4FC EQ PUSH2 0xA7 JUMPI DUP1 PUSH4 0xB3B3D608 EQ PUSH2 0xC3 JUMPI DUP1 PUSH4 0xD39FA233 EQ PUSH2 0xDF JUMPI JUMPDEST PUSH0 DUP1 REVERT JUMPDEST PUSH2 0x61 PUSH2 0x10F JUMP JUMPDEST PUSH1 0x40 MLOAD PUSH2 0x6E SWAP2 SWAP1 PUSH2 0x31F JUMP JUMPDEST PUSH1 0x40 MLOAD DUP1 SWAP2 SUB SWAP1 RETURN JUMPDEST PUSH2 0x91 PUSH1 0x4 DUP1 CALLDATASIZE SUB DUP2 ADD SWAP1 PUSH2 0x8C SWAP2 SWAP1 PUSH2 0x383 JUMP JUMPDEST PUSH2 0x1DA JUMP JUMPDEST PUSH1 0x40 MLOAD PUSH2 0x9E SWAP2 SWAP1 PUSH2 0x3BD JUMP JUMPDEST PUSH1 0x40 MLOAD DUP1 SWAP2 SUB SWAP1 RETURN JUMPDEST PUSH2 0xC1 PUSH1 0x4 DUP1 CALLDATASIZE SUB DUP2 ADD SWAP1 PUSH2 0xBC SWAP2 SWAP1 PUSH2 0x502 JUMP JUMPDEST PUSH2 0x1F7 JUMP JUMPDEST STOP JUMPDEST PUSH2 0xDD PUSH1 0x4 DUP1 CALLDATASIZE SUB DUP2 ADD SWAP1 PUSH2 0xD8 SWAP2 SWAP1 PUSH2 0x549 JUMP JUMPDEST PUSH2 0x245 JUMP JUMPDEST STOP JUMPDEST PUSH2 0xF9 PUSH1 0x4 DUP1 CALLDATASIZE SUB DUP2 ADD SWAP1 PUSH2 0xF4 SWAP2 SWAP1 PUSH2 0x383 JUMP JUMPDEST PUSH2 0x297 JUMP JUMPDEST PUSH1 0x40 MLOAD PUSH2 0x106 SWAP2 SWAP1 PUSH2 0x3BD JUMP JUMPDEST PUSH1 0x40 MLOAD DUP1 SWAP2 SUB SWAP1 RETURN JUMPDEST PUSH1 0x60 PUSH1 0x3 PUSH0 CALLER PUSH20 0xFFFFFFFFFFFFFFFFFFFFFFFFFFFFFFFFFFFFFFFF AND PUSH20 0xFFFFFFFFFFFFFFFFFFFFFFFFFFFFFFFFFFFFFFFF AND DUP2 MSTORE PUSH1 0x20 ADD SWAP1 DUP2 MSTORE PUSH1 0x20 ADD PUSH0 KECCAK256 DUP1 SLOAD PUSH2 0x159 SWAP1 PUSH2 0x5C6 JUMP JUMPDEST DUP1 PUSH1 0x1F ADD PUSH1 0x20 DUP1 SWAP2 DIV MUL PUSH1 0x20 ADD PUSH1 0x40 MLOAD SWAP1 DUP2 ADD PUSH1 0x40 MSTORE DUP1 SWAP3 SWAP2 SWAP1 DUP2 DUP2 MSTORE PUSH1 0x20 ADD DUP3 DUP1 SLOAD PUSH2 0x185 SWAP1 PUSH2 0x5C6 JUMP JUMPDEST DUP1 ISZERO PUSH2 0x1D0 JUMPI DUP1 PUSH1 0x1F LT PUSH2 0x1A7 JUMPI PUSH2 0x100 DUP1 DUP4 SLOAD DIV MUL DUP4 MSTORE SWAP2 PUSH1 0x20 ADD SWAP2 PUSH2 0x1D0 JUMP JUMPDEST DUP3 ADD SWAP2 SWAP1 PUSH0 MSTORE PUSH1 0x20 PUSH0 KECCAK256 SWAP1 JUMPDEST DUP2 SLOAD DUP2 MSTORE SWAP1 PUSH1 0x1 ADD SWAP1 PUSH1 0x20 ADD DUP1 DUP4 GT PUSH2 0x1B3 JUMPI DUP3 SWAP1 SUB PUSH1 0x1F AND DUP3 ADD SWAP2 JUMPDEST POP POP POP POP POP SWAP1 POP SWAP1 JUMP JUMPDEST PUSH0 DUP1 DUP3 PUSH1 0x3 DUP2 LT PUSH2 0x1EE JUMPI PUSH2 0x1ED PUSH2 0x5F6 JUMP JUMPDEST JUMPDEST ADD SLOAD SWAP1 POP SWAP2 SWAP1 POP JUMP JUMPDEST DUP1 PUSH1 0x3 PUSH0 CALLER PUSH20 0xFFFFFFFFFFFFFFFFFFFFFFFFFFFFFFFFFFFFFFFF AND PUSH20 0xFFFFFFFFFFFFFFFFFFFFFFFFFFFFFFFFFFFFFFFF AND DUP2 MSTORE PUSH1 0x20 ADD SWAP1 DUP2 MSTORE PUSH1 0x20 ADD PUSH0 KECCAK256 SWAP1 DUP2 PUSH2 0x241 SWAP2 SWAP1 PUSH2 0x7C0 JUMP JUMPDEST POP POP JUMP JUMPDEST DUP3 PUSH0 DUP1 PUSH1 0x3 DUP2 LT PUSH2 0x259 JUMPI PUSH2 0x258 PUSH2 0x5F6 JUMP JUMPDEST JUMPDEST ADD DUP2 SWAP1 SSTORE POP DUP2 PUSH0 PUSH1 0x1 PUSH1 0x3 DUP2 LT PUSH2 0x273 JUMPI PUSH2 0x272 PUSH2 0x5F6 JUMP JUMPDEST JUMPDEST ADD DUP2 SWAP1 SSTORE POP DUP1 PUSH0 PUSH1 0x2 PUSH1 0x3 DUP2 LT PUSH2 0x28D JUMPI PUSH2 0x28C PUSH2 0x5F6 JUMP JUMPDEST JUMPDEST ADD DUP2 SWAP1 SSTORE POP POP POP POP JUMP JUMPDEST PUSH0 DUP2 PUSH1 0x3 DUP2 LT PUSH2 0x2A5 JUMPI PUSH0 DUP1 REVERT JUMPDEST ADD PUSH0 SWAP2 POP SWAP1 POP SLOAD DUP2 JUMP JUMPDEST PUSH0 DUP2 MLOAD SWAP1 POP SWAP2 SWAP1 POP JUMP JUMPDEST PUSH0 DUP3 DUP3 MSTORE PUSH1 0x20 DUP3 ADD SWAP1 POP SWAP3 SWAP2 POP POP JUMP JUMPDEST DUP3 DUP2 DUP4 MCOPY PUSH0 DUP4 DUP4 ADD MSTORE POP POP POP JUMP JUMPDEST PUSH0 PUSH1 0x1F NOT PUSH1 0x1F DUP4 ADD AND SWAP1 POP SWAP2 SWAP1 POP JUMP JUMPDEST PUSH0 PUSH2 0x2F1 DUP3 PUSH2 0x2AF JUMP JUMPDEST PUSH2 0x2FB DUP2 DUP6 PUSH2 0x2B9 JUMP JUMPDEST SWAP4 POP PUSH2 0x30B DUP2 DUP6 PUSH1 0x20 DUP7 ADD PUSH2 0x2C9 JUMP JUMPDEST PUSH2 0x314 DUP2 PUSH2 0x2D7 JUMP JUMPDEST DUP5 ADD SWAP2 POP POP SWAP3 SWAP2 POP POP JUMP JUMPDEST PUSH0 PUSH1 0x20 DUP3 ADD SWAP1 POP DUP2 DUP2 SUB PUSH0 DUP4 ADD MSTORE PUSH2 0x337 DUP2 DUP5 PUSH2 0x2E7 JUMP JUMPDEST SWAP1 POP SWAP3 SWAP2 POP POP JUMP JUMPDEST PUSH0 PUSH1 0x40 MLOAD SWAP1 POP SWAP1 JUMP JUMPDEST PUSH0 DUP1 REVERT JUMPDEST PUSH0 DUP1 REVERT JUMPDEST PUSH0 DUP2 SWAP1 POP SWAP2 SWAP1 POP JUMP JUMPDEST PUSH2 0x362 DUP2 PUSH2 0x350 JUMP JUMPDEST DUP2 EQ PUSH2 0x36C JUMPI PUSH0 DUP1 REVERT JUMPDEST POP JUMP JUMPDEST PUSH0 DUP2 CALLDATALOAD SWAP1 POP PUSH2 0x37D DUP2 PUSH2 0x359 JUMP JUMPDEST SWAP3 SWAP2 POP POP JUMP JUMPDEST PUSH0 PUSH1 0x20 DUP3 DUP5 SUB SLT ISZERO PUSH2 0x398 JUMPI PUSH2 0x397 PUSH2 0x348 JUMP JUMPDEST JUMPDEST PUSH0 PUSH2 0x3A5 DUP5 DUP3 DUP6 ADD PUSH2 0x36F JUMP JUMPDEST SWAP2 POP POP SWAP3 SWAP2 POP POP JUMP JUMPDEST PUSH2 0x3B7 DUP2 PUSH2 0x350 JUMP JUMPDEST DUP3 MSTORE POP POP JUMP JUMPDEST PUSH0 PUSH1 0x20 DUP3 ADD SWAP1 POP PUSH2 0x3D0 PUSH0 DUP4 ADD DUP5 PUSH2 0x3AE JUMP JUMPDEST SWAP3 SWAP2 POP POP JUMP JUMPDEST PUSH0 DUP1 REVERT JUMPDEST PUSH0 DUP1 REVERT JUMPDEST PUSH32 0x4E487B7100000000000000000000000000000000000000000000000000000000 PUSH0 MSTORE PUSH1 0x41 PUSH1 0x4 MSTORE PUSH1 0x24 PUSH0 REVERT JUMPDEST PUSH2 0x414 DUP3 PUSH2 0x2D7 JUMP JUMPDEST DUP2 ADD DUP2 DUP2 LT PUSH8 0xFFFFFFFFFFFFFFFF DUP3 GT OR ISZERO PUSH2 0x433 JUMPI PUSH2 0x432 PUSH2 0x3DE JUMP JUMPDEST JUMPDEST DUP1 PUSH1 0x40 MSTORE POP POP POP JUMP JUMPDEST PUSH0 PUSH2 0x445 PUSH2 0x33F JUMP JUMPDEST SWAP1 POP PUSH2 0x451 DUP3 DUP3 PUSH2 0x40B JUMP JUMPDEST SWAP2 SWAP1 POP JUMP JUMPDEST PUSH0 PUSH8 0xFFFFFFFFFFFFFFFF DUP3 GT ISZERO PUSH2 0x470 JUMPI PUSH2 0x46F PUSH2 0x3DE JUMP JUMPDEST JUMPDEST PUSH2 0x479 DUP3 PUSH2 0x2D7 JUMP JUMPDEST SWAP1 POP PUSH1 0x20 DUP2 ADD SWAP1 POP SWAP2 SWAP1 POP JUMP JUMPDEST DUP3 DUP2 DUP4 CALLDATACOPY PUSH0 DUP4 DUP4 ADD MSTORE POP POP POP JUMP JUMPDEST PUSH0 PUSH2 0x4A6 PUSH2 0x4A1 DUP5 PUSH2 0x456 JUMP JUMPDEST PUSH2 0x43C JUMP JUMPDEST SWAP1 POP DUP3 DUP2 MSTORE PUSH1 0x20 DUP2 ADD DUP5 DUP5 DUP5 ADD GT ISZERO PUSH2 0x4C2 JUMPI PUSH2 0x4C1 PUSH2 0x3DA JUMP JUMPDEST JUMPDEST PUSH2 0x4CD DUP5 DUP3 DUP6 PUSH2 0x486 JUMP JUMPDEST POP SWAP4 SWAP3 POP POP POP JUMP JUMPDEST PUSH0 DUP3 PUSH1 0x1F DUP4 ADD SLT PUSH2 0x4E9 JUMPI PUSH2 0x4E8 PUSH2 0x3D6 JUMP JUMPDEST JUMPDEST DUP2 CALLDATALOAD PUSH2 0x4F9 DUP5 DUP3 PUSH1 0x20 DUP7 ADD PUSH2 0x494 JUMP JUMPDEST SWAP2 POP POP SWAP3 SWAP2 POP POP JUMP JUMPDEST PUSH0 PUSH1 0x20 DUP3 DUP5 SUB SLT ISZERO PUSH2 0x517 JUMPI PUSH2 0x516 PUSH2 0x348 JUMP JUMPDEST JUMPDEST PUSH0 DUP3 ADD CALLDATALOAD PUSH8 0xFFFFFFFFFFFFFFFF DUP2 GT ISZERO PUSH2 0x534 JUMPI PUSH2 0x533 PUSH2 0x34C JUMP JUMPDEST JUMPDEST PUSH2 0x540 DUP5 DUP3 DUP6 ADD PUSH2 0x4D5 JUMP JUMPDEST SWAP2 POP POP SWAP3 SWAP2 POP POP JUMP JUMPDEST PUSH0 DUP1 PUSH0 PUSH1 0x60 DUP5 DUP7 SUB SLT ISZERO PUSH2 0x560 JUMPI PUSH2 0x55F PUSH2 0x348 JUMP JUMPDEST JUMPDEST PUSH0 PUSH2 0x56D DUP7 DUP3 DUP8 ADD PUSH2 0x36F JUMP JUMPDEST SWAP4 POP POP PUSH1 0x20 PUSH2 0x57E DUP7 DUP3 DUP8 ADD PUSH2 0x36F JUMP JUMPDEST SWAP3 POP POP PUSH1 0x40 PUSH2 0x58F DUP7 DUP3 DUP8 ADD PUSH2 0x36F JUMP JUMPDEST SWAP2 POP POP SWAP3 POP SWAP3 POP SWAP3 JUMP JUMPDEST PUSH32 0x4E487B7100000000000000000000000000000000000000000000000000000000 PUSH0 MSTORE PUSH1 0x22 PUSH1 0x4 MSTORE PUSH1 0x24 PUSH0 REVERT JUMPDEST PUSH0 PUSH1 0x2 DUP3 DIV SWAP1 POP PUSH1 0x1 DUP3 AND DUP1 PUSH2 0x5DD JUMPI PUSH1 0x7F DUP3 AND SWAP2 POP JUMPDEST PUSH1 0x20 DUP3 LT DUP2 SUB PUSH2 0x5F0 JUMPI PUSH2 0x5EF PUSH2 0x599 JUMP JUMPDEST JUMPDEST POP SWAP2 SWAP1 POP JUMP JUMPDEST PUSH32 0x4E487B7100000000000000000000000000000000000000000000000000000000 PUSH0 MSTORE PUSH1 0x32 PUSH1 0x4 MSTORE PUSH1 0x24 PUSH0 REVERT JUMPDEST PUSH0 DUP2 SWAP1 POP DUP2 PUSH0 MSTORE PUSH1 0x20 PUSH0 KECCAK256 SWAP1 POP SWAP2 SWAP1 POP JUMP JUMPDEST PUSH0 PUSH1 0x20 PUSH1 0x1F DUP4 ADD DIV SWAP1 POP SWAP2 SWAP1 POP JUMP JUMPDEST PUSH0 DUP3 DUP3 SHL SWAP1 POP SWAP3 SWAP2 POP POP JUMP JUMPDEST PUSH0 PUSH1 0x8 DUP4 MUL PUSH2 0x67F PUSH32 0xFFFFFFFFFFFFFFFFFFFFFFFFFFFFFFFFFFFFFFFFFFFFFFFFFFFFFFFFFFFFFFFF DUP3 PUSH2 0x644 JUMP JUMPDEST PUSH2 0x689 DUP7 DUP4 PUSH2 0x644 JUMP JUMPDEST SWAP6 POP DUP1 NOT DUP5 AND SWAP4 POP DUP1 DUP7 AND DUP5 OR SWAP3 POP POP POP SWAP4 SWAP3 POP POP POP JUMP JUMPDEST PUSH0 DUP2 SWAP1 POP SWAP2 SWAP1 POP JUMP JUMPDEST PUSH0 PUSH2 0x6C4 PUSH2 0x6BF PUSH2 0x6BA DUP5 PUSH2 0x350 JUMP JUMPDEST PUSH2 0x6A1 JUMP JUMPDEST PUSH2 0x350 JUMP JUMPDEST SWAP1 POP SWAP2 SWAP1 POP JUMP JUMPDEST PUSH0 DUP2 SWAP1 POP SWAP2 SWAP1 POP JUMP JUMPDEST PUSH2 0x6DD DUP4 PUSH2 0x6AA JUMP JUMPDEST PUSH2 0x6F1 PUSH2 0x6E9 DUP3 PUSH2 0x6CB JUMP JUMPDEST DUP5 DUP5 SLOAD PUSH2 0x650 JUMP JUMPDEST DUP3 SSTORE POP POP POP POP JUMP JUMPDEST PUSH0 SWAP1 JUMP JUMPDEST PUSH2 0x705 PUSH2 0x6F9 JUMP JUMPDEST PUSH2 0x710 DUP2 DUP5 DUP5 PUSH2 0x6D4 JUMP JUMPDEST POP POP POP JUMP JUMPDEST JUMPDEST DUP2 DUP2 LT ISZERO PUSH2 0x733 JUMPI PUSH2 0x728 PUSH0 DUP3 PUSH2 0x6FD JUMP JUMPDEST PUSH1 0x1 DUP2 ADD SWAP1 POP PUSH2 0x716 JUMP JUMPDEST POP POP JUMP JUMPDEST PUSH1 0x1F DUP3 GT ISZERO PUSH2 0x778 JUMPI PUSH2 0x749 DUP2 PUSH2 0x623 JUMP JUMPDEST PUSH2 0x752 DUP5 PUSH2 0x635 JUMP JUMPDEST DUP2 ADD PUSH1 0x20 DUP6 LT ISZERO PUSH2 0x761 JUMPI DUP2 SWAP1 POP JUMPDEST PUSH2 0x775 PUSH2 0x76D DUP6 PUSH2 0x635 JUMP JUMPDEST DUP4 ADD DUP3 PUSH2 0x715 JUMP JUMPDEST POP POP JUMPDEST POP POP POP JUMP JUMPDEST PUSH0 DUP3 DUP3 SHR SWAP1 POP SWAP3 SWAP2 POP POP JUMP JUMPDEST PUSH0 PUSH2 0x798 PUSH0 NOT DUP5 PUSH1 0x8 MUL PUSH2 0x77D JUMP JUMPDEST NOT DUP1 DUP4 AND SWAP2 POP POP SWAP3 SWAP2 POP POP JUMP JUMPDEST PUSH0 PUSH2 0x7B0 DUP4 DUP4 PUSH2 0x789 JUMP JUMPDEST SWAP2 POP DUP3 PUSH1 0x2 MUL DUP3 OR SWAP1 POP SWAP3 SWAP2 POP POP JUMP JUMPDEST PUSH2 0x7C9 DUP3 PUSH2 0x2AF JUMP JUMPDEST PUSH8 0xFFFFFFFFFFFFFFFF DUP2 GT ISZERO PUSH2 0x7E2 JUMPI PUSH2 0x7E1 PUSH2 0x3DE JUMP JUMPDEST JUMPDEST PUSH2 0x7EC DUP3 SLOAD PUSH2 0x5C6 JUMP JUMPDEST PUSH2 0x7F7 DUP3 DUP3 DUP6 PUSH2 0x737 JUMP JUMPDEST PUSH0 PUSH1 0x20 SWAP1 POP PUSH1 0x1F DUP4 GT PUSH1 0x1 DUP2 EQ PUSH2 0x828 JUMPI PUSH0 DUP5 ISZERO PUSH2 0x816 JUMPI DUP3 DUP8 ADD MLOAD SWAP1 POP JUMPDEST PUSH2 0x820 DUP6 DUP3 PUSH2 0x7A5 JUMP JUMPDEST DUP7 SSTORE POP PUSH2 0x887 JUMP JUMPDEST PUSH1 0x1F NOT DUP5 AND PUSH2 0x836 DUP7 PUSH2 0x623 JUMP JUMPDEST PUSH0 JUMPDEST DUP3 DUP2 LT ISZERO PUSH2 0x85D JUMPI DUP5 DUP10 ADD MLOAD DUP3 SSTORE PUSH1 0x1 DUP3 ADD SWAP2 POP PUSH1 0x20 DUP6 ADD SWAP5 POP PUSH1 0x20 DUP2 ADD SWAP1 POP PUSH2 0x838 JUMP JUMPDEST DUP7 DUP4 LT ISZERO PUSH2 0x87A JUMPI DUP5 DUP10 ADD MLOAD PUSH2 0x876 PUSH1 0x1F DUP10 AND DUP3 PUSH2 0x789 JUMP JUMPDEST DUP4 SSTORE POP JUMPDEST PUSH1 0x1 PUSH1 0x2 DUP9 MUL ADD DUP9 SSTORE POP POP POP JUMPDEST POP POP POP POP POP POP JUMP INVALID LOG2 PUSH5 0x6970667358 0x22 SLT KECCAK256 PUSH30 0x2E7BF629FB6B1FE543B5E6EBE68FF8E6E725A96F42B9AC3FF757CB712FE2 PUSH8 0x64736F6C63430008 BYTE STOP CALLER "
				},
				"gasEstimates": {
					"creation": {
						"codeDepositCost": "449000",
						"executionCost": "484",
						"totalCost": "449484"
					},
					"external": {
						"getName()": "infinite",
						"getNumbers(uint256)": "infinite",
						"numbers(uint256)": "infinite",
						"setNumbers(uint256,uint256,uint256)": "infinite",
						"signUp(string)": "infinite"
					}
				},
				"methodIdentifiers": {
					"getName()": "17d7de7c",
					"getNumbers(uint256)": "4a7b26ae",
					"numbers(uint256)": "d39fa233",
					"setNumbers(uint256,uint256,uint256)": "b3b3d608",
					"signUp(string)": "adcfb4fc"
				}
			},
			"storageLayout": {
				"storage": [
					{
						"astId": 5,
						"contract": "contracts/arrays/normal.sol:ENS",
						"label": "numbers",
						"offset": 0,
						"slot": "0",
						"type": "t_array(t_uint256)3_storage"
					},
					{
						"astId": 49,
						"contract": "contracts/arrays/normal.sol:ENS",
						"label": "users",
						"offset": 0,
						"slot": "3",
						"type": "t_mapping(t_address,t_string_storage)"
					}
				],
				"types": {
					"t_address": {
						"encoding": "inplace",
						"label": "address",
						"numberOfBytes": "20"
					},
					"t_array(t_uint256)3_storage": {
						"base": "t_uint256",
						"encoding": "inplace",
						"label": "uint256[3]",
						"numberOfBytes": "96"
					},
					"t_mapping(t_address,t_string_storage)": {
						"encoding": "mapping",
						"key": "t_address",
						"label": "mapping(address => string)",
						"numberOfBytes": "32",
						"value": "t_string_storage"
					},
					"t_string_storage": {
						"encoding": "bytes",
						"label": "string",
						"numberOfBytes": "32"
					},
					"t_uint256": {
						"encoding": "inplace",
						"label": "uint256",
						"numberOfBytes": "32"
					}
				}
			},
			"userdoc": {
				"kind": "user",
				"methods": {},
				"version": 1
			}
		}
	}
}